{
  "contractName": "HMW",
  "abi": [
    {
      "constant": true,
      "inputs": [
        {
          "name": "",
          "type": "address"
        }
      ],
      "name": "isAgent",
      "outputs": [
        {
          "name": "",
          "type": "bool"
        }
      ],
      "payable": false,
      "stateMutability": "view",
      "type": "function"
    },
    {
      "constant": true,
      "inputs": [
        {
          "name": "",
          "type": "address"
        }
      ],
      "name": "depositESCB9smartContract",
      "outputs": [
        {
          "name": "status",
          "type": "uint8"
        },
        {
          "name": "sum",
          "type": "uint256"
        },
        {
          "name": "notice",
          "type": "bytes"
        },
        {
          "name": "transactionId",
          "type": "uint256"
        }
      ],
      "payable": false,
      "stateMutability": "view",
      "type": "function"
    },
    {
      "constant": true,
      "inputs": [
        {
          "name": "",
          "type": "uint256"
        },
        {
          "name": "",
          "type": "address"
        }
      ],
      "name": "confirmations",
      "outputs": [
        {
          "name": "",
          "type": "bool"
        }
      ],
      "payable": false,
      "stateMutability": "view",
      "type": "function"
    },
    {
      "constant": true,
      "inputs": [],
      "name": "standardTimeAutoConfirmation",
      "outputs": [
        {
          "name": "",
          "type": "uint256"
        }
      ],
      "payable": false,
      "stateMutability": "view",
      "type": "function"
    },
    {
      "constant": true,
      "inputs": [
        {
          "name": "",
          "type": "uint256"
        }
      ],
      "name": "agents",
      "outputs": [
        {
          "name": "",
          "type": "address"
        }
      ],
      "payable": false,
      "stateMutability": "view",
      "type": "function"
    },
    {
      "constant": true,
      "inputs": [
        {
          "name": "",
          "type": "uint256"
        }
      ],
      "name": "ESCB9smartContracts",
      "outputs": [
        {
          "name": "",
          "type": "address"
        }
      ],
      "payable": false,
      "stateMutability": "view",
      "type": "function"
    },
    {
      "constant": true,
      "inputs": [
        {
          "name": "",
          "type": "address"
        }
      ],
      "name": "isESCB9smartContract",
      "outputs": [
        {
          "name": "",
          "type": "bool"
        }
      ],
      "payable": false,
      "stateMutability": "view",
      "type": "function"
    },
    {
      "constant": true,
      "inputs": [
        {
          "name": "",
          "type": "uint256"
        }
      ],
      "name": "members",
      "outputs": [
        {
          "name": "",
          "type": "address"
        }
      ],
      "payable": false,
      "stateMutability": "view",
      "type": "function"
    },
    {
      "constant": true,
      "inputs": [
        {
          "name": "",
          "type": "uint256"
        }
      ],
      "name": "children",
      "outputs": [
        {
          "name": "",
          "type": "address"
        }
      ],
      "payable": false,
      "stateMutability": "view",
      "type": "function"
    },
    {
      "constant": true,
      "inputs": [
        {
          "name": "",
          "type": "uint256"
        }
      ],
      "name": "transactions",
      "outputs": [
        {
          "name": "destination",
          "type": "address"
        },
        {
          "name": "value",
          "type": "uint256"
        },
        {
          "name": "data",
          "type": "bytes"
        },
        {
          "name": "executed",
          "type": "bool"
        },
        {
          "name": "status",
          "type": "uint8"
        },
        {
          "name": "timeAutoConfirmation",
          "type": "uint256"
        }
      ],
      "payable": false,
      "stateMutability": "view",
      "type": "function"
    },
    {
      "constant": true,
      "inputs": [
        {
          "name": "",
          "type": "address"
        }
      ],
      "name": "ratings",
      "outputs": [
        {
          "name": "agent",
          "type": "address"
        },
        {
          "name": "negativeRating",
          "type": "uint256"
        },
        {
          "name": "positiveRating",
          "type": "uint256"
        },
        {
          "name": "countRatingRecords",
          "type": "uint256"
        }
      ],
      "payable": false,
      "stateMutability": "view",
      "type": "function"
    },
    {
      "constant": true,
      "inputs": [
        {
          "name": "",
          "type": "address"
        }
      ],
      "name": "isMember",
      "outputs": [
        {
          "name": "",
          "type": "bool"
        }
      ],
      "payable": false,
      "stateMutability": "view",
      "type": "function"
    },
    {
      "constant": true,
      "inputs": [],
      "name": "transactionCount",
      "outputs": [
        {
          "name": "",
          "type": "uint256"
        }
      ],
      "payable": false,
      "stateMutability": "view",
      "type": "function"
    },
    {
      "constant": true,
      "inputs": [
        {
          "name": "",
          "type": "address"
        },
        {
          "name": "",
          "type": "uint256"
        }
      ],
      "name": "ratingRecords",
      "outputs": [
        {
          "name": "agent",
          "type": "address"
        },
        {
          "name": "author",
          "type": "address"
        },
        {
          "name": "smartContractAddress",
          "type": "bytes32"
        },
        {
          "name": "positiveOrNegative",
          "type": "bool"
        },
        {
          "name": "ratingNumber",
          "type": "uint256"
        },
        {
          "name": "comment",
          "type": "bytes"
        }
      ],
      "payable": false,
      "stateMutability": "view",
      "type": "function"
    },
    {
      "constant": true,
      "inputs": [],
      "name": "requiredConfirmationCount",
      "outputs": [
        {
          "name": "",
          "type": "uint256"
        }
      ],
      "payable": false,
      "stateMutability": "view",
      "type": "function"
    },
    {
      "constant": true,
      "inputs": [],
      "name": "maxMemberCount",
      "outputs": [
        {
          "name": "",
          "type": "uint256"
        }
      ],
      "payable": false,
      "stateMutability": "view",
      "type": "function"
    },
    {
      "constant": true,
      "inputs": [
        {
          "name": "",
          "type": "address"
        }
      ],
      "name": "isChild",
      "outputs": [
        {
          "name": "",
          "type": "bool"
        }
      ],
      "payable": false,
      "stateMutability": "view",
      "type": "function"
    },
    {
      "inputs": [
        {
          "name": "_members",
          "type": "address[]"
        },
        {
          "name": "_requiredConfirmationCount",
          "type": "uint256"
        },
        {
          "name": "_standardTimeAutoConfirmation",
          "type": "uint256"
        }
      ],
      "payable": false,
      "stateMutability": "nonpayable",
      "type": "constructor"
    },
    {
      "payable": true,
      "stateMutability": "payable",
      "type": "fallback"
    },
    {
      "anonymous": false,
      "inputs": [
        {
          "indexed": true,
          "name": "member",
          "type": "address"
        }
      ],
      "name": "MemberAddition",
      "type": "event"
    },
    {
      "anonymous": false,
      "inputs": [
        {
          "indexed": true,
          "name": "member",
          "type": "address"
        }
      ],
      "name": "MemberRemoval",
      "type": "event"
    },
    {
      "anonymous": false,
      "inputs": [
        {
          "indexed": false,
          "name": "requiredConfirmationCount",
          "type": "uint256"
        }
      ],
      "name": "RequiredConfirmationCountChange",
      "type": "event"
    },
    {
      "anonymous": false,
      "inputs": [
        {
          "indexed": false,
          "name": "childAddress",
          "type": "address"
        },
        {
          "indexed": false,
          "name": "timeStamp",
          "type": "uint256"
        }
      ],
      "name": "ChildAttachment",
      "type": "event"
    },
    {
      "anonymous": false,
      "inputs": [
        {
          "indexed": false,
          "name": "childAddress",
          "type": "address"
        },
        {
          "indexed": false,
          "name": "timeStamp",
          "type": "uint256"
        }
      ],
      "name": "ChildRemoval",
      "type": "event"
    },
    {
      "anonymous": false,
      "inputs": [
        {
          "indexed": true,
          "name": "sender",
          "type": "address"
        },
        {
          "indexed": true,
          "name": "transactionId",
          "type": "uint256"
        },
        {
          "indexed": false,
          "name": "timeStamp",
          "type": "uint256"
        }
      ],
      "name": "Confirmation",
      "type": "event"
    },
    {
      "anonymous": false,
      "inputs": [
        {
          "indexed": true,
          "name": "sender",
          "type": "address"
        },
        {
          "indexed": true,
          "name": "transactionId",
          "type": "uint256"
        },
        {
          "indexed": false,
          "name": "timeStamp",
          "type": "uint256"
        }
      ],
      "name": "Revocation",
      "type": "event"
    },
    {
      "anonymous": false,
      "inputs": [
        {
          "indexed": true,
          "name": "transactionId",
          "type": "uint256"
        }
      ],
      "name": "Submission",
      "type": "event"
    },
    {
      "anonymous": false,
      "inputs": [
        {
          "indexed": true,
          "name": "transactionId",
          "type": "uint256"
        }
      ],
      "name": "Execution",
      "type": "event"
    },
    {
      "anonymous": false,
      "inputs": [
        {
          "indexed": true,
          "name": "transactionId",
          "type": "uint256"
        }
      ],
      "name": "ExecutionFailure",
      "type": "event"
    },
    {
      "anonymous": false,
      "inputs": [
        {
          "indexed": true,
          "name": "transactionId",
          "type": "uint256"
        }
      ],
      "name": "TransactionFrozen",
      "type": "event"
    },
    {
      "anonymous": false,
      "inputs": [
        {
          "indexed": true,
          "name": "transactionId",
          "type": "uint256"
        }
      ],
      "name": "TransactionDisputed",
      "type": "event"
    },
    {
      "anonymous": false,
      "inputs": [
        {
          "indexed": true,
          "name": "transactionId",
          "type": "uint256"
        }
      ],
      "name": "TransactionReverted",
      "type": "event"
    },
    {
      "anonymous": false,
      "inputs": [
        {
          "indexed": true,
          "name": "sender",
          "type": "address"
        },
        {
          "indexed": false,
          "name": "value",
          "type": "uint256"
        }
      ],
      "name": "Deposit",
      "type": "event"
    },
    {
      "anonymous": false,
      "inputs": [
        {
          "indexed": true,
          "name": "author",
          "type": "address"
        },
        {
          "indexed": true,
          "name": "agent",
          "type": "address"
        },
        {
          "indexed": false,
          "name": "smartContractAddress",
          "type": "bytes32"
        },
        {
          "indexed": false,
          "name": "positiveOrNegative",
          "type": "bool"
        },
        {
          "indexed": false,
          "name": "ratingNumber",
          "type": "uint256"
        },
        {
          "indexed": false,
          "name": "comment",
          "type": "bytes"
        }
      ],
      "name": "RatingRecordAdded",
      "type": "event"
    },
    {
      "anonymous": false,
      "inputs": [
        {
          "indexed": false,
          "name": "smartContract",
          "type": "address"
        }
      ],
      "name": "AttachingESCB9SmartContract",
      "type": "event"
    },
    {
      "anonymous": false,
      "inputs": [
        {
          "indexed": false,
          "name": "smartContract",
          "type": "address"
        },
        {
          "indexed": false,
          "name": "status",
          "type": "uint8"
        }
      ],
      "name": "ChangeDepositStatusForESCB9SmartContract",
      "type": "event"
    },
    {
      "anonymous": false,
      "inputs": [
        {
          "indexed": false,
          "name": "smartContract",
          "type": "address"
        },
        {
          "indexed": false,
          "name": "sum",
          "type": "uint256"
        },
        {
          "indexed": false,
          "name": "notice",
          "type": "bytes"
        }
      ],
      "name": "ConfirmationForDepositESCB9SmartContract",
      "type": "event"
    },
    {
      "anonymous": false,
      "inputs": [
        {
          "indexed": false,
          "name": "smartContract",
          "type": "address"
        },
        {
          "indexed": false,
          "name": "sum",
          "type": "uint256"
        },
        {
          "indexed": false,
          "name": "notice",
          "type": "bytes"
        }
      ],
      "name": "CheckingForDepositESCB9SmartContract",
      "type": "event"
    },
    {
      "anonymous": false,
      "inputs": [
        {
          "indexed": false,
          "name": "smartContract",
          "type": "address"
        },
        {
          "indexed": false,
          "name": "sum",
          "type": "uint256"
        },
        {
          "indexed": false,
          "name": "notice",
          "type": "bytes"
        }
      ],
      "name": "SendDepositToSeller",
      "type": "event"
    },
    {
      "constant": true,
      "inputs": [],
      "name": "getMembers",
      "outputs": [
        {
          "name": "",
          "type": "address[]"
        }
      ],
      "payable": false,
      "stateMutability": "view",
      "type": "function"
    },
    {
      "constant": true,
      "inputs": [
        {
          "name": "indexNumber",
          "type": "uint256"
        }
      ],
      "name": "getMember",
      "outputs": [
        {
          "name": "",
          "type": "address"
        }
      ],
      "payable": false,
      "stateMutability": "view",
      "type": "function"
    },
    {
      "constant": false,
      "inputs": [
        {
          "name": "member",
          "type": "address"
        }
      ],
      "name": "addMember",
      "outputs": [],
      "payable": false,
      "stateMutability": "nonpayable",
      "type": "function"
    },
    {
      "constant": false,
      "inputs": [
        {
          "name": "member",
          "type": "address"
        }
      ],
      "name": "removeMember",
      "outputs": [],
      "payable": false,
      "stateMutability": "nonpayable",
      "type": "function"
    },
    {
      "constant": false,
      "inputs": [
        {
          "name": "member",
          "type": "address"
        },
        {
          "name": "newMember",
          "type": "address"
        }
      ],
      "name": "replaceMember",
      "outputs": [],
      "payable": false,
      "stateMutability": "nonpayable",
      "type": "function"
    },
    {
      "constant": false,
      "inputs": [
        {
          "name": "_requiredConfirmationCount",
          "type": "uint256"
        }
      ],
      "name": "changeRequiredConfirmationCount",
      "outputs": [],
      "payable": false,
      "stateMutability": "nonpayable",
      "type": "function"
    },
    {
      "constant": true,
      "inputs": [],
      "name": "getChildren",
      "outputs": [
        {
          "name": "",
          "type": "address[]"
        }
      ],
      "payable": false,
      "stateMutability": "view",
      "type": "function"
    },
    {
      "constant": false,
      "inputs": [
        {
          "name": "child",
          "type": "address"
        }
      ],
      "name": "attachChild",
      "outputs": [],
      "payable": false,
      "stateMutability": "nonpayable",
      "type": "function"
    },
    {
      "constant": false,
      "inputs": [
        {
          "name": "child",
          "type": "address"
        }
      ],
      "name": "removeChild",
      "outputs": [],
      "payable": false,
      "stateMutability": "nonpayable",
      "type": "function"
    },
    {
      "constant": false,
      "inputs": [
        {
          "name": "child",
          "type": "address"
        },
        {
          "name": "newChild",
          "type": "address"
        }
      ],
      "name": "replaceChild",
      "outputs": [],
      "payable": false,
      "stateMutability": "nonpayable",
      "type": "function"
    },
    {
      "constant": true,
      "inputs": [
        {
          "name": "transactionId",
          "type": "uint256"
        }
      ],
      "name": "getTransactionStatus",
      "outputs": [
        {
          "name": "status",
          "type": "uint8"
        }
      ],
      "payable": false,
      "stateMutability": "view",
      "type": "function"
    },
    {
      "constant": true,
      "inputs": [
        {
          "name": "transactionId",
          "type": "uint256"
        },
        {
          "name": "enumStatusNumber",
          "type": "uint8"
        }
      ],
      "name": "isTransactionStatus",
      "outputs": [
        {
          "name": "result",
          "type": "bool"
        }
      ],
      "payable": false,
      "stateMutability": "view",
      "type": "function"
    },
    {
      "constant": true,
      "inputs": [
        {
          "name": "transactionId",
          "type": "uint256"
        },
        {
          "name": "addressMember",
          "type": "address"
        }
      ],
      "name": "getConfirmationByAddress",
      "outputs": [
        {
          "name": "result",
          "type": "bool"
        }
      ],
      "payable": false,
      "stateMutability": "view",
      "type": "function"
    },
    {
      "constant": true,
      "inputs": [
        {
          "name": "pending",
          "type": "bool"
        },
        {
          "name": "executed",
          "type": "bool"
        }
      ],
      "name": "getTransactionCount",
      "outputs": [
        {
          "name": "count",
          "type": "uint256"
        }
      ],
      "payable": false,
      "stateMutability": "view",
      "type": "function"
    },
    {
      "constant": true,
      "inputs": [
        {
          "name": "transactionId",
          "type": "uint256"
        }
      ],
      "name": "getConfirmationCount",
      "outputs": [
        {
          "name": "count",
          "type": "uint256"
        }
      ],
      "payable": false,
      "stateMutability": "view",
      "type": "function"
    },
    {
      "constant": true,
      "inputs": [
        {
          "name": "transactionId",
          "type": "uint256"
        }
      ],
      "name": "getConfirmations",
      "outputs": [
        {
          "name": "_confirmations",
          "type": "address[]"
        }
      ],
      "payable": false,
      "stateMutability": "view",
      "type": "function"
    },
    {
      "constant": true,
      "inputs": [
        {
          "name": "transactionId",
          "type": "uint256"
        }
      ],
      "name": "getTimeAutoConfirmation",
      "outputs": [
        {
          "name": "timeStamp",
          "type": "uint256"
        }
      ],
      "payable": false,
      "stateMutability": "view",
      "type": "function"
    },
    {
      "constant": true,
      "inputs": [
        {
          "name": "from",
          "type": "uint256"
        },
        {
          "name": "to",
          "type": "uint256"
        },
        {
          "name": "pending",
          "type": "bool"
        },
        {
          "name": "executed",
          "type": "bool"
        }
      ],
      "name": "getTransactionIds",
      "outputs": [
        {
          "name": "_transactionIds",
          "type": "uint256[]"
        }
      ],
      "payable": false,
      "stateMutability": "view",
      "type": "function"
    },
    {
      "constant": true,
      "inputs": [
        {
          "name": "transactionId",
          "type": "uint256"
        }
      ],
      "name": "isConfirmed",
      "outputs": [
        {
          "name": "",
          "type": "bool"
        }
      ],
      "payable": false,
      "stateMutability": "view",
      "type": "function"
    },
    {
      "constant": false,
      "inputs": [
        {
          "name": "destination",
          "type": "address"
        },
        {
          "name": "value",
          "type": "uint256"
        },
        {
          "name": "_timeAutoConfirmation",
          "type": "uint256"
        },
        {
          "name": "data",
          "type": "bytes"
        }
      ],
      "name": "submitTransaction",
      "outputs": [
        {
          "name": "transactionId",
          "type": "uint256"
        }
      ],
      "payable": false,
      "stateMutability": "nonpayable",
      "type": "function"
    },
    {
      "constant": false,
      "inputs": [
        {
          "name": "destination",
          "type": "address"
        },
        {
          "name": "value",
          "type": "uint256"
        },
        {
          "name": "_timeAutoConfirmation",
          "type": "uint256"
        },
        {
          "name": "data",
          "type": "bytes"
        }
      ],
      "name": "delegateTransaction",
      "outputs": [
        {
          "name": "transactionId",
          "type": "uint256"
        }
      ],
      "payable": false,
      "stateMutability": "nonpayable",
      "type": "function"
    },
    {
      "constant": false,
      "inputs": [
        {
          "name": "transactionId",
          "type": "uint256"
        }
      ],
      "name": "confirmTransaction",
      "outputs": [],
      "payable": false,
      "stateMutability": "nonpayable",
      "type": "function"
    },
    {
      "constant": false,
      "inputs": [
        {
          "name": "transactionId",
          "type": "uint256"
        }
      ],
      "name": "revokeConfirmation",
      "outputs": [],
      "payable": false,
      "stateMutability": "nonpayable",
      "type": "function"
    },
    {
      "constant": false,
      "inputs": [
        {
          "name": "transactionId",
          "type": "uint256"
        },
        {
          "name": "enumStatusNumber",
          "type": "uint8"
        }
      ],
      "name": "setTransactionStatus",
      "outputs": [],
      "payable": false,
      "stateMutability": "nonpayable",
      "type": "function"
    },
    {
      "constant": false,
      "inputs": [
        {
          "name": "transactionId",
          "type": "uint256"
        }
      ],
      "name": "executeTransaction",
      "outputs": [],
      "payable": false,
      "stateMutability": "nonpayable",
      "type": "function"
    },
    {
      "constant": false,
      "inputs": [
        {
          "name": "transactionId",
          "type": "uint256"
        }
      ],
      "name": "autoExecuteTransaction",
      "outputs": [],
      "payable": false,
      "stateMutability": "nonpayable",
      "type": "function"
    },
    {
      "constant": false,
      "inputs": [
        {
          "name": "author",
          "type": "address"
        },
        {
          "name": "agent",
          "type": "address"
        },
        {
          "name": "smartContractAddress",
          "type": "bytes32"
        },
        {
          "name": "positiveOrNegative",
          "type": "bool"
        },
        {
          "name": "ratingNumber",
          "type": "uint256"
        },
        {
          "name": "comment",
          "type": "bytes"
        }
      ],
      "name": "addRatingRecord",
      "outputs": [
        {
          "name": "",
          "type": "bool"
        }
      ],
      "payable": false,
      "stateMutability": "nonpayable",
      "type": "function"
    },
    {
      "constant": true,
      "inputs": [
        {
          "name": "smartContract",
          "type": "address"
        }
      ],
      "name": "isAttachedESCB9SmartContract",
      "outputs": [
        {
          "name": "result",
          "type": "bool"
        }
      ],
      "payable": false,
      "stateMutability": "view",
      "type": "function"
    },
    {
      "constant": true,
      "inputs": [
        {
          "name": "smartContract",
          "type": "address"
        }
      ],
      "name": "getDepositStatusForESCB9SmartContract",
      "outputs": [
        {
          "name": "result",
          "type": "uint8"
        }
      ],
      "payable": false,
      "stateMutability": "view",
      "type": "function"
    },
    {
      "constant": true,
      "inputs": [
        {
          "name": "smartContract",
          "type": "address"
        }
      ],
      "name": "ESCB9SmartContractIsDeposited",
      "outputs": [
        {
          "name": "result",
          "type": "bool"
        }
      ],
      "payable": false,
      "stateMutability": "view",
      "type": "function"
    },
    {
      "constant": false,
      "inputs": [
        {
          "name": "smartContract",
          "type": "address"
        }
      ],
      "name": "attachESCB9SmartContract",
      "outputs": [],
      "payable": false,
      "stateMutability": "nonpayable",
      "type": "function"
    },
    {
      "constant": false,
      "inputs": [
        {
          "name": "smartContract",
          "type": "address"
        },
        {
          "name": "sum",
          "type": "uint256"
        },
        {
          "name": "notice",
          "type": "bytes"
        }
      ],
      "name": "fundDepositForESCB9SmartContract",
      "outputs": [],
      "payable": true,
      "stateMutability": "payable",
      "type": "function"
    },
    {
      "constant": false,
      "inputs": [
        {
          "name": "smartContract",
          "type": "address"
        },
        {
          "name": "enumStatusNumber",
          "type": "uint8"
        }
      ],
      "name": "setDepositForESCB9SmartContractStatus",
      "outputs": [],
      "payable": false,
      "stateMutability": "nonpayable",
      "type": "function"
    },
    {
      "constant": false,
      "inputs": [
        {
          "name": "smartContract",
          "type": "address"
        },
        {
          "name": "notice",
          "type": "bytes"
        }
      ],
      "name": "confirmESCB9SmartContract",
      "outputs": [],
      "payable": false,
      "stateMutability": "nonpayable",
      "type": "function"
    },
    {
      "constant": false,
      "inputs": [
        {
          "name": "smartContract",
          "type": "address"
        },
        {
          "name": "notice",
          "type": "bytes"
        }
      ],
      "name": "cancelESCB9SmartContract",
      "outputs": [],
      "payable": false,
      "stateMutability": "nonpayable",
      "type": "function"
    },
    {
      "constant": true,
      "inputs": [],
      "name": "getNow",
      "outputs": [
        {
          "name": "",
          "type": "uint256"
        }
      ],
      "payable": false,
      "stateMutability": "view",
      "type": "function"
    }
  ],
  "bytecode": "0x608060405260326000553480156200001657600080fd5b5060405162006b0b38038062006b0b833981018060405281019080805182019291906020018051906020019092919080519060200190929190505050600083518360005482111580156200006a5750818111155b801562000078575060008114155b801562000086575060008214155b15156200009257600080fd5b600084111515620000a257600080fd5b600092505b8551831015620001dd57600260008785815181101515620000c457fe5b9060200190602002015173ffffffffffffffffffffffffffffffffffffffff1673ffffffffffffffffffffffffffffffffffffffff16815260200190815260200160002060009054906101000a900460ff16158015620001535750600086848151811015156200013057fe5b9060200190602002015173ffffffffffffffffffffffffffffffffffffffff1614155b15156200015f57600080fd5b60016002600088868151811015156200017457fe5b9060200190602002015173ffffffffffffffffffffffffffffffffffffffff1673ffffffffffffffffffffffffffffffffffffffff16815260200190815260200160002060006101000a81548160ff0219169083151502179055508280600101935050620000a7565b8560019080519060200190620001f592919062000210565b508460098190555083600b81905550505050505050620002e5565b8280548282559060005260206000209081019282156200028c579160200282015b828111156200028b5782518260006101000a81548173ffffffffffffffffffffffffffffffffffffffff021916908373ffffffffffffffffffffffffffffffffffffffff1602179055509160200191906001019062000231565b5b5090506200029b91906200029f565b5090565b620002e291905b80821115620002de57600081816101000a81549073ffffffffffffffffffffffffffffffffffffffff021916905550600101620002a6565b5090565b90565b61681680620002f56000396000f30060806040526004361061027d576000357c0100000000000000000000000000000000000000000000000000000000900463ffffffff1680630b1ca49a146102d75780630f7c060f1461031a57806312a39db2146103cb5780631d0090281461040e5780631ffbb0641461045e57806320ea8d86146104b95780632901977a146104e65780632f1f10ff14610513578063335f301f146105f25780633411c81c1461067b5780633578ea1b146106e057806337b02c581461070b5780633ae4ca5e1461074557806345d00f53146107f657806346ea3786146108395780634892e8e81461088b578063513856c8146108f757806353dc5e261461096457806354741525146109d15780635707a62a14610a205780635daf08ca14610a7b5780635e1c26f914610ae85780636bbc379d14610b435780637002ce4214610b92578063715d9b5d14610bff578063784547a714610c5a5780637c66819814610c9f5780638ae5244514610d045780638b51d13f14610d8d5780638c8c603d14610dce5780638d3f5f4d14610e545780639ace38c214610f395780639e01dfbb146110405780639eab5253146110d8578063a230c52414611144578063a8abe69a1461119f578063ab3545e514611243578063b5dc40c3146112b0578063b77bf60014611332578063bbe4fd501461135d578063c01a8c8414611388578063c2a30b04146113b5578063ca6d56dc146113f8578063cda0eb0a1461143b578063db6ffcc014611588578063e577e32e146115eb578063e603bcca1461164e578063ea92900c14611679578063ee22610b146116de578063f2b58bb21461170b578063f71a6a5514611738578063fb11be7514611779578063fc91a897146117a4575b60003411156102d5573373ffffffffffffffffffffffffffffffffffffffff167fe1fffcc4923d04b559f4d29a8bfc6cda04eb5b0d3c460751c2402c5c5cc9109c346040518082815260200191505060405180910390a25b005b3480156102e357600080fd5b50610318600480360381019080803573ffffffffffffffffffffffffffffffffffffffff1690602001909291905050506117ff565b005b34801561032657600080fd5b506103b5600480360381019080803573ffffffffffffffffffffffffffffffffffffffff1690602001909291908035906020019092919080359060200190929190803590602001908201803590602001908080601f0160208091040260200160405190810160405280939291908181526020018383808284378201915050505050509192919290505050611a94565b6040518082815260200191505060405180910390f35b3480156103d757600080fd5b5061040c600480360381019080803573ffffffffffffffffffffffffffffffffffffffff169060200190929190505050611b05565b005b34801561041a57600080fd5b5061045c600480360381019080803573ffffffffffffffffffffffffffffffffffffffff169060200190929190803560ff169060200190929190505050611daf565b005b34801561046a57600080fd5b5061049f600480360381019080803573ffffffffffffffffffffffffffffffffffffffff1690602001909291905050506121a8565b604051808215151515815260200191505060405180910390f35b3480156104c557600080fd5b506104e4600480360381019080803590602001909291905050506121c8565b005b3480156104f257600080fd5b5061051160048036038101908080359060200190929190505050612383565b005b34801561051f57600080fd5b50610554600480360381019080803573ffffffffffffffffffffffffffffffffffffffff16906020019092919050505061243e565b6040518085600381111561056457fe5b60ff16815260200184815260200180602001838152602001828103825284818151815260200191508051906020019080838360005b838110156105b4578082015181840152602081019050610599565b50505050905090810190601f1680156105e15780820380516001836020036101000a031916815260200191505b509550505050505060405180910390f35b3480156105fe57600080fd5b50610679600480360381019080803573ffffffffffffffffffffffffffffffffffffffff169060200190929190803590602001908201803590602001908080601f0160208091040260200160405190810160405280939291908181526020018383808284378201915050505050509192919290505050612513565b005b34801561068757600080fd5b506106c660048036038101908080359060200190929190803573ffffffffffffffffffffffffffffffffffffffff169060200190929190505050612cb0565b604051808215151515815260200191505060405180910390f35b3480156106ec57600080fd5b506106f5612cdf565b6040518082815260200191505060405180910390f35b34801561071757600080fd5b5061074360048036038101908080359060200190929190803560ff169060200190929190505050612ce5565b005b34801561075157600080fd5b506107e0600480360381019080803573ffffffffffffffffffffffffffffffffffffffff1690602001909291908035906020019092919080359060200190929190803590602001908201803590602001908080601f0160208091040260200160405190810160405280939291908181526020018383808284378201915050505050509192919290505050612e53565b6040518082815260200191505060405180910390f35b34801561080257600080fd5b50610837600480360381019080803573ffffffffffffffffffffffffffffffffffffffff169060200190929190505050612f13565b005b34801561084557600080fd5b5061087160048036038101908080359060200190929190803560ff169060200190929190505050613103565b604051808215151515815260200191505060405180910390f35b34801561089757600080fd5b506108a0613149565b6040518080602001828103825283818151815260200191508051906020019060200280838360005b838110156108e35780820151818401526020810190506108c8565b505050509050019250505060405180910390f35b34801561090357600080fd5b50610922600480360381019080803590602001909291905050506131d7565b604051808273ffffffffffffffffffffffffffffffffffffffff1673ffffffffffffffffffffffffffffffffffffffff16815260200191505060405180910390f35b34801561097057600080fd5b5061098f60048036038101908080359060200190929190505050613215565b604051808273ffffffffffffffffffffffffffffffffffffffff1673ffffffffffffffffffffffffffffffffffffffff16815260200191505060405180910390f35b3480156109dd57600080fd5b50610a0a600480360381019080803515159060200190929190803515159060200190929190505050613253565b6040518082815260200191505060405180910390f35b348015610a2c57600080fd5b50610a61600480360381019080803573ffffffffffffffffffffffffffffffffffffffff1690602001909291905050506132e7565b604051808215151515815260200191505060405180910390f35b348015610a8757600080fd5b50610aa660048036038101908080359060200190929190505050613307565b604051808273ffffffffffffffffffffffffffffffffffffffff1673ffffffffffffffffffffffffffffffffffffffff16815260200191505060405180910390f35b348015610af457600080fd5b50610b29600480360381019080803573ffffffffffffffffffffffffffffffffffffffff169060200190929190505050613345565b604051808215151515815260200191505060405180910390f35b348015610b4f57600080fd5b50610b6e6004803603810190808035906020019092919050505061339b565b60405180826004811115610b7e57fe5b60ff16815260200191505060405180910390f35b348015610b9e57600080fd5b50610bbd600480360381019080803590602001909291905050506133c8565b604051808273ffffffffffffffffffffffffffffffffffffffff1673ffffffffffffffffffffffffffffffffffffffff16815260200191505060405180910390f35b348015610c0b57600080fd5b50610c40600480360381019080803573ffffffffffffffffffffffffffffffffffffffff169060200190929190505050613406565b604051808215151515815260200191505060405180910390f35b348015610c6657600080fd5b50610c8560048036038101908080359060200190929190505050613478565b604051808215151515815260200191505060405180910390f35b348015610cab57600080fd5b50610cea60048036038101908080359060200190929190803573ffffffffffffffffffffffffffffffffffffffff16906020019092919050505061355d565b604051808215151515815260200191505060405180910390f35b348015610d1057600080fd5b50610d8b600480360381019080803573ffffffffffffffffffffffffffffffffffffffff169060200190929190803590602001908201803590602001908080601f01602080910402602001604051908101604052809392919081815260200183838082843782019150505050505091929192905050506135c5565b005b348015610d9957600080fd5b50610db860048036038101908080359060200190929190505050613c58565b6040518082815260200191505060405180910390f35b610e52600480360381019080803573ffffffffffffffffffffffffffffffffffffffff16906020019092919080359060200190929190803590602001908201803590602001908080601f0160208091040260200160405190810160405280939291908181526020018383808284378201915050505050509192919290505050613d23565b005b348015610e6057600080fd5b50610f1f600480360381019080803573ffffffffffffffffffffffffffffffffffffffff169060200190929190803573ffffffffffffffffffffffffffffffffffffffff169060200190929190803560001916906020019092919080351515906020019092919080359060200190929190803590602001908201803590602001908080601f01602080910402602001604051908101604052809392919081815260200183838082843782019150505050505091929192905050506143e2565b604051808215151515815260200191505060405180910390f35b348015610f4557600080fd5b50610f6460048036038101908080359060200190929190505050614713565b604051808773ffffffffffffffffffffffffffffffffffffffff1673ffffffffffffffffffffffffffffffffffffffff1681526020018681526020018060200185151515158152602001846004811115610fba57fe5b60ff168152602001838152602001828103825286818151815260200191508051906020019080838360005b83811015611000578082015181840152602081019050610fe5565b50505050905090810190601f16801561102d5780820380516001836020036101000a031916815260200191505b5097505050505050505060405180910390f35b34801561104c57600080fd5b50611081600480360381019080803573ffffffffffffffffffffffffffffffffffffffff169060200190929190505050614821565b604051808573ffffffffffffffffffffffffffffffffffffffff1673ffffffffffffffffffffffffffffffffffffffff16815260200184815260200183815260200182815260200194505050505060405180910390f35b3480156110e457600080fd5b506110ed614871565b6040518080602001828103825283818151815260200191508051906020019060200280838360005b83811015611130578082015181840152602081019050611115565b505050509050019250505060405180910390f35b34801561115057600080fd5b50611185600480360381019080803573ffffffffffffffffffffffffffffffffffffffff1690602001909291905050506148ff565b604051808215151515815260200191505060405180910390f35b3480156111ab57600080fd5b506111ec600480360381019080803590602001909291908035906020019092919080351515906020019092919080351515906020019092919050505061491f565b6040518080602001828103825283818151815260200191508051906020019060200280838360005b8381101561122f578082015181840152602081019050611214565b505050509050019250505060405180910390f35b34801561124f57600080fd5b5061126e60048036038101908080359060200190929190505050614aab565b604051808273ffffffffffffffffffffffffffffffffffffffff1673ffffffffffffffffffffffffffffffffffffffff16815260200191505060405180910390f35b3480156112bc57600080fd5b506112db60048036038101908080359060200190929190505050614b0d565b6040518080602001828103825283818151815260200191508051906020019060200280838360005b8381101561131e578082015181840152602081019050611303565b505050509050019250505060405180910390f35b34801561133e57600080fd5b50611347614d4a565b6040518082815260200191505060405180910390f35b34801561136957600080fd5b50611372614d50565b6040518082815260200191505060405180910390f35b34801561139457600080fd5b506113b360048036038101908080359060200190929190505050614d58565b005b3480156113c157600080fd5b506113f6600480360381019080803573ffffffffffffffffffffffffffffffffffffffff169060200190929190505050614f49565b005b34801561140457600080fd5b50611439600480360381019080803573ffffffffffffffffffffffffffffffffffffffff16906020019092919050505061547f565b005b34801561144757600080fd5b50611486600480360381019080803573ffffffffffffffffffffffffffffffffffffffff16906020019092919080359060200190929190505050615684565b604051808773ffffffffffffffffffffffffffffffffffffffff1673ffffffffffffffffffffffffffffffffffffffff1681526020018673ffffffffffffffffffffffffffffffffffffffff1673ffffffffffffffffffffffffffffffffffffffff16815260200185600019166000191681526020018415151515815260200183815260200180602001828103825283818151815260200191508051906020019080838360005b8381101561154857808201518184015260208101905061152d565b50505050905090810190601f1680156115755780820380516001836020036101000a031916815260200191505b5097505050505050505060405180910390f35b34801561159457600080fd5b506115e9600480360381019080803573ffffffffffffffffffffffffffffffffffffffff169060200190929190803573ffffffffffffffffffffffffffffffffffffffff1690602001909291905050506157c1565b005b3480156115f757600080fd5b5061164c600480360381019080803573ffffffffffffffffffffffffffffffffffffffff169060200190929190803573ffffffffffffffffffffffffffffffffffffffff169060200190929190505050615b34565b005b34801561165a57600080fd5b50611663615e49565b6040518082815260200191505060405180910390f35b34801561168557600080fd5b506116ba600480360381019080803573ffffffffffffffffffffffffffffffffffffffff169060200190929190505050615e4f565b604051808260038111156116ca57fe5b60ff16815260200191505060405180910390f35b3480156116ea57600080fd5b5061170960048036038101908080359060200190929190505050615ea8565b005b34801561171757600080fd5b5061173660048036038101908080359060200190929190505050616175565b005b34801561174457600080fd5b5061176360048036038101908080359060200190929190505050616399565b6040518082815260200191505060405180910390f35b34801561178557600080fd5b5061178e6163b9565b6040518082815260200191505060405180910390f35b3480156117b057600080fd5b506117e5600480360381019080803573ffffffffffffffffffffffffffffffffffffffff1690602001909291905050506163bf565b604051808215151515815260200191505060405180910390f35b60003073ffffffffffffffffffffffffffffffffffffffff163373ffffffffffffffffffffffffffffffffffffffff1614151561183b57600080fd5b81600260008273ffffffffffffffffffffffffffffffffffffffff1673ffffffffffffffffffffffffffffffffffffffff16815260200190815260200160002060009054906101000a900460ff16151561189457600080fd5b6000600260008573ffffffffffffffffffffffffffffffffffffffff1673ffffffffffffffffffffffffffffffffffffffff16815260200190815260200160002060006101000a81548160ff021916908315150217905550600091505b6001808054905003821015611a16578273ffffffffffffffffffffffffffffffffffffffff1660018381548110151561192657fe5b9060005260206000200160009054906101000a900473ffffffffffffffffffffffffffffffffffffffff1673ffffffffffffffffffffffffffffffffffffffff161415611a095760018080805490500381548110151561198257fe5b9060005260206000200160009054906101000a900473ffffffffffffffffffffffffffffffffffffffff166001838154811015156119bc57fe5b9060005260206000200160006101000a81548173ffffffffffffffffffffffffffffffffffffffff021916908373ffffffffffffffffffffffffffffffffffffffff160217905550611a16565b81806001019250506118f1565b60018081818054905003915081611a2d919061657e565b506001805490506009541115611a4c57611a4b600180549050612383565b5b8273ffffffffffffffffffffffffffffffffffffffff167f270bfc616dd36d5cb6b35aac93e6ef22b089c34e6f6ad6f0892797424840897b60405160405180910390a2505050565b6000808560008173ffffffffffffffffffffffffffffffffffffffff1614151515611abe57600080fd5b611ac6614d50565b851115611ad557849150611ae4565b600b54611ae0614d50565b0191505b611af0878786856163df565b9250611afb83614d58565b5050949350505050565b60003073ffffffffffffffffffffffffffffffffffffffff163373ffffffffffffffffffffffffffffffffffffffff16141515611b4157600080fd5b81600660008273ffffffffffffffffffffffffffffffffffffffff1673ffffffffffffffffffffffffffffffffffffffff16815260200190815260200160002060009054906101000a900460ff161515611b9a57600080fd5b6000600660008573ffffffffffffffffffffffffffffffffffffffff1673ffffffffffffffffffffffffffffffffffffffff16815260200190815260200160002060006101000a81548160ff021916908315150217905550600091505b600160058054905003821015611d1f578273ffffffffffffffffffffffffffffffffffffffff16600583815481101515611c2d57fe5b9060005260206000200160009054906101000a900473ffffffffffffffffffffffffffffffffffffffff1673ffffffffffffffffffffffffffffffffffffffff161415611d12576005600160058054905003815481101515611c8b57fe5b9060005260206000200160009054906101000a900473ffffffffffffffffffffffffffffffffffffffff16600583815481101515611cc557fe5b9060005260206000200160006101000a81548173ffffffffffffffffffffffffffffffffffffffff021916908373ffffffffffffffffffffffffffffffffffffffff160217905550611d1f565b8180600101925050611bf7565b6001600581818054905003915081611d37919061657e565b507f2b7ba2ac5a8b88c9a954366673eeb1251b2a07f35b607ead8b6079016d31dff283611d62614d50565b604051808373ffffffffffffffffffffffffffffffffffffffff1673ffffffffffffffffffffffffffffffffffffffff1681526020018281526020019250505060405180910390a1505050565b3073ffffffffffffffffffffffffffffffffffffffff163373ffffffffffffffffffffffffffffffffffffffff16141515611de957600080fd5b806003811115611df557fe5b60006003811115611e0257fe5b1415611e87577f96bca532ea6281b5dca2f82032fe73830d7c02e4a2b8b0f85a5e3c93e191686b826000604051808373ffffffffffffffffffffffffffffffffffffffff1673ffffffffffffffffffffffffffffffffffffffff168152602001826003811115611e6e57fe5b60ff1681526020019250505060405180910390a1612141565b806003811115611e9357fe5b60026003811115611ea057fe5b141561209d577f96bca532ea6281b5dca2f82032fe73830d7c02e4a2b8b0f85a5e3c93e191686b826002604051808373ffffffffffffffffffffffffffffffffffffffff1673ffffffffffffffffffffffffffffffffffffffff168152602001826003811115611f0c57fe5b60ff1681526020019250505060405180910390a17f2e4c7f0cd3e3b03e2418dc208d41c08c039b280233066e85280d09b15774556b82601060008573ffffffffffffffffffffffffffffffffffffffff1673ffffffffffffffffffffffffffffffffffffffff16815260200190815260200160002060010154601060008673ffffffffffffffffffffffffffffffffffffffff1673ffffffffffffffffffffffffffffffffffffffff168152602001908152602001600020600201604051808473ffffffffffffffffffffffffffffffffffffffff1673ffffffffffffffffffffffffffffffffffffffff168152602001838152602001806020018281038252838181546001816001161561010002031660029004815260200191508054600181600116156101000203166002900480156120885780601f1061205d57610100808354040283529160200191612088565b820191906000526020600020905b81548152906001019060200180831161206b57829003601f168201915b505094505050505060405180910390a1612140565b8060038111156120a957fe5b6003808111156120b557fe5b141561213a577f96bca532ea6281b5dca2f82032fe73830d7c02e4a2b8b0f85a5e3c93e191686b826003604051808373ffffffffffffffffffffffffffffffffffffffff1673ffffffffffffffffffffffffffffffffffffffff16815260200182600381111561212157fe5b60ff1681526020019250505060405180910390a161213f565b600080fd5b5b5b80601060008473ffffffffffffffffffffffffffffffffffffffff1673ffffffffffffffffffffffffffffffffffffffff16815260200190815260200160002060000160006101000a81548160ff0219169083600381111561219f57fe5b02179055505050565b60046020528060005260406000206000915054906101000a900460ff1681565b33600260008273ffffffffffffffffffffffffffffffffffffffff1673ffffffffffffffffffffffffffffffffffffffff16815260200190815260200160002060009054906101000a900460ff16151561222157600080fd5b81336008600083815260200190815260200160002060008273ffffffffffffffffffffffffffffffffffffffff1673ffffffffffffffffffffffffffffffffffffffff16815260200190815260200160002060009054906101000a900460ff16151561228c57600080fd5b836007600082815260200190815260200160002060030160009054906101000a900460ff161515156122bd57600080fd5b60006008600087815260200190815260200160002060003373ffffffffffffffffffffffffffffffffffffffff1673ffffffffffffffffffffffffffffffffffffffff16815260200190815260200160002060006101000a81548160ff021916908315150217905550843373ffffffffffffffffffffffffffffffffffffffff167fe827a154c6314369155b222eec8c3cc622bf06bd0db6edaf4266028d958895f7612367614d50565b6040518082815260200191505060405180910390a35050505050565b3073ffffffffffffffffffffffffffffffffffffffff163373ffffffffffffffffffffffffffffffffffffffff161415156123bd57600080fd5b6001805490508160005482111580156123d65750818111155b80156123e3575060008114155b80156123f0575060008214155b15156123fb57600080fd5b826009819055507fd52927095a25c60ad75d01ea081c27ebef329d7edb1e6e646d1fe7b69f3e8906836040518082815260200191505060405180910390a1505050565b60106020528060005260406000206000915090508060000160009054906101000a900460ff1690806001015490806002018054600181600116156101000203166002900480601f0160208091040260200160405190810160405280929190818152602001828054600181600116156101000203166002900480156125035780601f106124d857610100808354040283529160200191612503565b820191906000526020600020905b8154815290600101906020018083116124e657829003601f168201915b5050505050908060030154905084565b600080600084600f60008273ffffffffffffffffffffffffffffffffffffffff1673ffffffffffffffffffffffffffffffffffffffff16815260200190815260200160002060009054906101000a900460ff16151561257157600080fd5b8573ffffffffffffffffffffffffffffffffffffffff16637150d8ae6040518163ffffffff167c0100000000000000000000000000000000000000000000000000000000028152600401602060405180830381600087803b1580156125d557600080fd5b505af11580156125e9573d6000803e3d6000fd5b505050506040513d60208110156125ff57600080fd5b810190808051906020019092919050505093503073ffffffffffffffffffffffffffffffffffffffff163373ffffffffffffffffffffffffffffffffffffffff16148061267757508373ffffffffffffffffffffffffffffffffffffffff163373ffffffffffffffffffffffffffffffffffffffff16145b151561268257600080fd5b6002600381111561268f57fe5b601060008873ffffffffffffffffffffffffffffffffffffffff1673ffffffffffffffffffffffffffffffffffffffff16815260200190815260200160002060000160009054906101000a900460ff1660038111156126ea57fe5b1415156126f657600080fd5b60405180807f307834353534343800000000000000000000000000000000000000000000000081525060080190506040518091039020600019168673ffffffffffffffffffffffffffffffffffffffff16632c769fb96040518163ffffffff167c0100000000000000000000000000000000000000000000000000000000028152600401600060405180830381600087803b15801561279457600080fd5b505af11580156127a8573d6000803e3d6000fd5b505050506040513d6000823e3d601f19601f8201168201806040525060208110156127d257600080fd5b8101908080516401000000008111156127ea57600080fd5b8281019050602081018481111561280057600080fd5b815185600182028301116401000000008211171561281d57600080fd5b50509291905050506040518082805190602001908083835b60208310151561285a5780518252602082019150602081019050602083039250612835565b6001836020036101000a0380198251168184511680821785525050505050509050019150506040518091039020600019161415612a1f578573ffffffffffffffffffffffffffffffffffffffff166308551a536040518163ffffffff167c0100000000000000000000000000000000000000000000000000000000028152600401602060405180830381600087803b1580156128f557600080fd5b505af1158015612909573d6000803e3d6000fd5b505050506040513d602081101561291f57600080fd5b810190808051906020019092919050505092508573ffffffffffffffffffffffffffffffffffffffff16634c99d3146040518163ffffffff167c0100000000000000000000000000000000000000000000000000000000028152600401602060405180830381600087803b15801561299657600080fd5b505af11580156129aa573d6000803e3d6000fd5b505050506040513d60208110156129c057600080fd5b810190808051906020019092919050505091508273ffffffffffffffffffffffffffffffffffffffff166108fc839081150290604051600060405180830381858888f19350505050158015612a19573d6000803e3d6000fd5b50612b98565b7fc8cba83a07d14a0468fdc0edfcb10a02ed123e319f48227c84ade5369cb7c8bb86601060008973ffffffffffffffffffffffffffffffffffffffff1673ffffffffffffffffffffffffffffffffffffffff16815260200190815260200160002060010154601060008a73ffffffffffffffffffffffffffffffffffffffff1673ffffffffffffffffffffffffffffffffffffffff168152602001908152602001600020600201604051808473ffffffffffffffffffffffffffffffffffffffff1673ffffffffffffffffffffffffffffffffffffffff16815260200183815260200180602001828103825283818154600181600116156101000203166002900481526020019150805460018160011615610100020316600290048015612b875780601f10612b5c57610100808354040283529160200191612b87565b820191906000526020600020905b815481529060010190602001808311612b6a57829003601f168201915b505094505050505060405180910390a15b8573ffffffffffffffffffffffffffffffffffffffff1663f2ddc772866040518263ffffffff167c01000000000000000000000000000000000000000000000000000000000281526004018080602001828103825283818151815260200191508051906020019080838360005b83811015612c20578082015181840152602081019050612c05565b50505050905090810190601f168015612c4d5780820380516001836020036101000a031916815260200191505b5092505050602060405180830381600087803b158015612c6c57600080fd5b505af1158015612c80573d6000803e3d6000fd5b505050506040513d6020811015612c9657600080fd5b810190808051906020019092919050505050505050505050565b60086020528160005260406000206020528060005260406000206000915091509054906101000a900460ff1681565b600b5481565b3073ffffffffffffffffffffffffffffffffffffffff163373ffffffffffffffffffffffffffffffffffffffff16141515612d1f57600080fd5b806004811115612d2b57fe5b60026004811115612d3857fe5b1415612d7057817f0fa152cb2c633e1e75371f50ac745947223cefeeef435346e13b363ff95df48160405160405180910390a2612e18565b806004811115612d7c57fe5b60036004811115612d8957fe5b1415612dc157817f61e60550bebc2b32282d4baacb9094d9c194d45912cea3e6b10440d24bf5d0fa60405160405180910390a2612e17565b806004811115612dcd57fe5b600480811115612dd957fe5b1415612e1157817f40767c3d47445db1e83ab478416f46c6c60d8edfda5098db32e3b2868818450260405160405180910390a2612e16565b600080fd5b5b5b806007600084815260200190815260200160002060030160016101000a81548160ff02191690836004811115612e4a57fe5b02179055505050565b6000808560008173ffffffffffffffffffffffffffffffffffffffff1614151515612e7d57600080fd5b600660003373ffffffffffffffffffffffffffffffffffffffff1673ffffffffffffffffffffffffffffffffffffffff16815260200190815260200160002060009054906101000a900460ff161515612ed557600080fd5b612edd614d50565b851115612eec57849150612efb565b600b54612ef7614d50565b0191505b612f07878786856163df565b92505050949350505050565b3073ffffffffffffffffffffffffffffffffffffffff163373ffffffffffffffffffffffffffffffffffffffff16141515612f4d57600080fd5b80600660008273ffffffffffffffffffffffffffffffffffffffff1673ffffffffffffffffffffffffffffffffffffffff16815260200190815260200160002060009054906101000a900460ff16151515612fa757600080fd5b8160008173ffffffffffffffffffffffffffffffffffffffff1614151515612fce57600080fd5b6001600660008573ffffffffffffffffffffffffffffffffffffffff1673ffffffffffffffffffffffffffffffffffffffff16815260200190815260200160002060006101000a81548160ff02191690831515021790555060058390806001815401808255809150509060018203906000526020600020016000909192909190916101000a81548173ffffffffffffffffffffffffffffffffffffffff021916908373ffffffffffffffffffffffffffffffffffffffff160217905550507f8998d7525983eac6e948a626c5f964d81cc1000c21aa8d98521f2ca34c44bad8836130b6614d50565b604051808373ffffffffffffffffffffffffffffffffffffffff1673ffffffffffffffffffffffffffffffffffffffff1681526020018281526020019250505060405180910390a1505050565b600081600481111561311157fe5b6007600085815260200190815260200160002060030160019054906101000a900460ff16600481111561314057fe5b14905092915050565b606060058054806020026020016040519081016040528092919081815260200182805480156131cd57602002820191906000526020600020905b8160009054906101000a900473ffffffffffffffffffffffffffffffffffffffff1673ffffffffffffffffffffffffffffffffffffffff1681526020019060010190808311613183575b5050505050905090565b6003818154811015156131e657fe5b906000526020600020016000915054906101000a900473ffffffffffffffffffffffffffffffffffffffff1681565b600e8181548110151561322457fe5b906000526020600020016000915054906101000a900473ffffffffffffffffffffffffffffffffffffffff1681565b600080600090505b600a548110156132e05783801561329357506007600082815260200190815260200160002060030160009054906101000a900460ff16155b806132c757508280156132c657506007600082815260200190815260200160002060030160009054906101000a900460ff165b5b156132d3576001820191505b808060010191505061325b565b5092915050565b600f6020528060005260406000206000915054906101000a900460ff1681565b60018181548110151561331657fe5b906000526020600020016000915054906101000a900473ffffffffffffffffffffffffffffffffffffffff1681565b6000600f60008373ffffffffffffffffffffffffffffffffffffffff1673ffffffffffffffffffffffffffffffffffffffff16815260200190815260200160002060009054906101000a900460ff169050919050565b60006007600083815260200190815260200160002060030160019054906101000a900460ff169050919050565b6005818154811015156133d757fe5b906000526020600020016000915054906101000a900473ffffffffffffffffffffffffffffffffffffffff1681565b60006002600381111561341557fe5b601060008473ffffffffffffffffffffffffffffffffffffffff1673ffffffffffffffffffffffffffffffffffffffff16815260200190815260200160002060000160009054906101000a900460ff16600381111561347057fe5b149050919050565b6000806000809150600090505b600180549050811015613555576008600085815260200190815260200160002060006001838154811015156134b657fe5b9060005260206000200160009054906101000a900473ffffffffffffffffffffffffffffffffffffffff1673ffffffffffffffffffffffffffffffffffffffff1673ffffffffffffffffffffffffffffffffffffffff16815260200190815260200160002060009054906101000a900460ff1615613535576001820191505b6009548214156135485760019250613556565b8080600101915050613485565b5b5050919050565b60006008600084815260200190815260200160002060008373ffffffffffffffffffffffffffffffffffffffff1673ffffffffffffffffffffffffffffffffffffffff16815260200190815260200160002060009054906101000a900460ff16905092915050565b600082600f60008273ffffffffffffffffffffffffffffffffffffffff1673ffffffffffffffffffffffffffffffffffffffff16815260200190815260200160002060009054906101000a900460ff16151561362057600080fd5b8373ffffffffffffffffffffffffffffffffffffffff16637150d8ae6040518163ffffffff167c0100000000000000000000000000000000000000000000000000000000028152600401602060405180830381600087803b15801561368457600080fd5b505af1158015613698573d6000803e3d6000fd5b505050506040513d60208110156136ae57600080fd5b810190808051906020019092919050505091503073ffffffffffffffffffffffffffffffffffffffff163373ffffffffffffffffffffffffffffffffffffffff16148061372657508173ffffffffffffffffffffffffffffffffffffffff163373ffffffffffffffffffffffffffffffffffffffff16145b151561373157600080fd5b6000600381111561373e57fe5b601060008673ffffffffffffffffffffffffffffffffffffffff1673ffffffffffffffffffffffffffffffffffffffff16815260200190815260200160002060000160009054906101000a900460ff16600381111561379957fe5b14156138b4578373ffffffffffffffffffffffffffffffffffffffff16633c5beeb4846040518263ffffffff167c01000000000000000000000000000000000000000000000000000000000281526004018080602001828103825283818151815260200191508051906020019080838360005b8381101561382757808201518184015260208101905061380c565b50505050905090810190601f1680156138545780820380516001836020036101000a031916815260200191505b5092505050602060405180830381600087803b15801561387357600080fd5b505af1158015613887573d6000803e3d6000fd5b505050506040513d602081101561389d57600080fd5b810190808051906020019092919050505050613c52565b600160038111156138c157fe5b601060008673ffffffffffffffffffffffffffffffffffffffff1673ffffffffffffffffffffffffffffffffffffffff16815260200190815260200160002060000160009054906101000a900460ff16600381111561391c57fe5b1415613a845761396f601060008673ffffffffffffffffffffffffffffffffffffffff1673ffffffffffffffffffffffffffffffffffffffff168152602001908152602001600020600301546002612ce5565b8373ffffffffffffffffffffffffffffffffffffffff1663bb11fb62846040518263ffffffff167c01000000000000000000000000000000000000000000000000000000000281526004018080602001828103825283818151815260200191508051906020019080838360005b838110156139f75780820151818401526020810190506139dc565b50505050905090810190601f168015613a245780820380516001836020036101000a031916815260200191505b5092505050602060405180830381600087803b158015613a4357600080fd5b505af1158015613a57573d6000803e3d6000fd5b505050506040513d6020811015613a6d57600080fd5b810190808051906020019092919050505050613c51565b60026003811115613a9157fe5b601060008673ffffffffffffffffffffffffffffffffffffffff1673ffffffffffffffffffffffffffffffffffffffff16815260200190815260200160002060000160009054906101000a900460ff166003811115613aec57fe5b1415613c50578373ffffffffffffffffffffffffffffffffffffffff1663bdc5ec4b846040518263ffffffff167c01000000000000000000000000000000000000000000000000000000000281526004018080602001828103825283818151815260200191508051906020019080838360005b83811015613b7a578082015181840152602081019050613b5f565b50505050905090810190601f168015613ba75780820380516001836020036101000a031916815260200191505b5092505050602060405180830381600087803b158015613bc657600080fd5b505af1158015613bda573d6000803e3d6000fd5b505050506040513d6020811015613bf057600080fd5b810190808051906020019092919050505050613c4f601060008673ffffffffffffffffffffffffffffffffffffffff1673ffffffffffffffffffffffffffffffffffffffff168152602001908152602001600020600301546003612ce5565b5b5b5b50505050565b600080600090505b600180549050811015613d1d57600860008481526020019081526020016000206000600183815481101515613c9157fe5b9060005260206000200160009054906101000a900473ffffffffffffffffffffffffffffffffffffffff1673ffffffffffffffffffffffffffffffffffffffff1673ffffffffffffffffffffffffffffffffffffffff16815260200190815260200160002060009054906101000a900460ff1615613d10576001820191505b8080600101915050613c60565b50919050565b60008360008173ffffffffffffffffffffffffffffffffffffffff1614151515613d4c57600080fd5b84600f60008273ffffffffffffffffffffffffffffffffffffffff1673ffffffffffffffffffffffffffffffffffffffff16815260200190815260200160002060009054906101000a900460ff161515613da557600080fd5b8560006003811115613db357fe5b601060008373ffffffffffffffffffffffffffffffffffffffff1673ffffffffffffffffffffffffffffffffffffffff16815260200190815260200160002060000160009054906101000a900460ff166003811115613e0e57fe5b141515613e1a57600080fd5b600034118015613fbc575060405180807f307834353534343800000000000000000000000000000000000000000000000081525060080190506040518091039020600019168773ffffffffffffffffffffffffffffffffffffffff16632c769fb96040518163ffffffff167c0100000000000000000000000000000000000000000000000000000000028152600401600060405180830381600087803b158015613ec357600080fd5b505af1158015613ed7573d6000803e3d6000fd5b505050506040513d6000823e3d601f19601f820116820180604052506020811015613f0157600080fd5b810190808051640100000000811115613f1957600080fd5b82810190506020810184811115613f2f57600080fd5b8151856001820283011164010000000082111715613f4c57600080fd5b50509291905050506040518082805190602001908083835b602083101515613f895780518252602082019150602081019050602083039250613f64565b6001836020036101000a038019825116818451168082178552505050505050905001915050604051809103902060001916145b156141b5573493508673ffffffffffffffffffffffffffffffffffffffff16634c99d3146040518163ffffffff167c0100000000000000000000000000000000000000000000000000000000028152600401602060405180830381600087803b15801561402857600080fd5b505af115801561403c573d6000803e3d6000fd5b505050506040513d602081101561405257600080fd5b81019080805190602001909291905050508414156141ab576002601060008973ffffffffffffffffffffffffffffffffffffffff1673ffffffffffffffffffffffffffffffffffffffff16815260200190815260200160002060000160006101000a81548160ff021916908360038111156140c957fe5b02179055507f2e4c7f0cd3e3b03e2418dc208d41c08c039b280233066e85280d09b15774556b878787604051808473ffffffffffffffffffffffffffffffffffffffff1673ffffffffffffffffffffffffffffffffffffffff16815260200183815260200180602001828103825283818151815260200191508051906020019080838360005b8381101561416a57808201518184015260208101905061414f565b50505050905090810190601f1680156141975780820380516001836020036101000a031916815260200191505b5094505050505060405180910390a16141b0565b600080fd5b6143d9565b8673ffffffffffffffffffffffffffffffffffffffff16634c99d3146040518163ffffffff167c0100000000000000000000000000000000000000000000000000000000028152600401602060405180830381600087803b15801561421957600080fd5b505af115801561422d573d6000803e3d6000fd5b505050506040513d602081101561424357600080fd5b81019080805190602001909291905050508614156143d8576001601060008973ffffffffffffffffffffffffffffffffffffffff1673ffffffffffffffffffffffffffffffffffffffff16815260200190815260200160002060000160006101000a81548160ff021916908360038111156142ba57fe5b021790555085601060008973ffffffffffffffffffffffffffffffffffffffff1673ffffffffffffffffffffffffffffffffffffffff1681526020019081526020016000206001018190555084601060008973ffffffffffffffffffffffffffffffffffffffff1673ffffffffffffffffffffffffffffffffffffffff168152602001908152602001600020600201908051906020019061435c9291906165aa565b507f96bca532ea6281b5dca2f82032fe73830d7c02e4a2b8b0f85a5e3c93e191686b876001604051808373ffffffffffffffffffffffffffffffffffffffff1673ffffffffffffffffffffffffffffffffffffffff1681526020018260038111156143c357fe5b60ff1681526020019250505060405180910390a15b5b50505050505050565b60008086600460008273ffffffffffffffffffffffffffffffffffffffff1673ffffffffffffffffffffffffffffffffffffffff16815260200190815260200160002060009054906101000a900460ff16151561443e57600080fd5b33600f60008273ffffffffffffffffffffffffffffffffffffffff1673ffffffffffffffffffffffffffffffffffffffff16815260200190815260200160002060009054906101000a900460ff16151561449757600080fd5b600d60008a73ffffffffffffffffffffffffffffffffffffffff1673ffffffffffffffffffffffffffffffffffffffff168152602001908152602001600020600d60008b73ffffffffffffffffffffffffffffffffffffffff1673ffffffffffffffffffffffffffffffffffffffff1681526020019081526020016000208054809190600101614527919061662a565b81548110151561453357fe5b90600052602060002090600602019250888360000160006101000a81548173ffffffffffffffffffffffffffffffffffffffff021916908373ffffffffffffffffffffffffffffffffffffffff160217905550898360010160006101000a81548173ffffffffffffffffffffffffffffffffffffffff021916908373ffffffffffffffffffffffffffffffffffffffff16021790555087836002018160001916905550868360030160006101000a81548160ff021916908315150217905550858360040181905550848360050190805190602001906146139291906165aa565b508873ffffffffffffffffffffffffffffffffffffffff168a73ffffffffffffffffffffffffffffffffffffffff167f1d0c7106b4494eb3d5ebfbe122f7cc735fafaa40dbfd91bb96f76f3c250eaa3c8a8a8a8a6040518085600019166000191681526020018415151515815260200183815260200180602001828103825283818151815260200191508051906020019080838360005b838110156146c55780820151818401526020810190506146aa565b50505050905090810190601f1680156146f25780820380516001836020036101000a031916815260200191505b509550505050505060405180910390a3600193505050509695505050505050565b60076020528060005260406000206000915090508060000160009054906101000a900473ffffffffffffffffffffffffffffffffffffffff1690806001015490806002018054600181600116156101000203166002900480601f0160208091040260200160405190810160405280929190818152602001828054600181600116156101000203166002900480156147eb5780601f106147c0576101008083540402835291602001916147eb565b820191906000526020600020905b8154815290600101906020018083116147ce57829003601f168201915b5050505050908060030160009054906101000a900460ff16908060030160019054906101000a900460ff16908060040154905086565b600c6020528060005260406000206000915090508060000160009054906101000a900473ffffffffffffffffffffffffffffffffffffffff16908060010154908060020154908060030154905084565b606060018054806020026020016040519081016040528092919081815260200182805480156148f557602002820191906000526020600020905b8160009054906101000a900473ffffffffffffffffffffffffffffffffffffffff1673ffffffffffffffffffffffffffffffffffffffff16815260200190600101908083116148ab575b5050505050905090565b60026020528060005260406000206000915054906101000a900460ff1681565b60608060008086881115806149355750600a5487105b151561494057600080fd5b6001888803016040519080825280602002602001820160405280156149745781602001602082028038833980820191505090505b509250600091508790505b8681111515614a20578580156149b657506007600082815260200190815260200160002060030160009054906101000a900460ff16155b806149ea57508480156149e957506007600082815260200190815260200160002060030160009054906101000a900460ff165b5b15614a13578083838151811015156149fe57fe5b90602001906020020181815250506001820191505b808060010191505061497f565b81604051908082528060200260200182016040528015614a4f5781602001602082028038833980820191505090505b509350600090505b81811015614aa0578281815181101515614a6d57fe5b906020019060200201518482815181101515614a8557fe5b90602001906020020181815250508080600101915050614a57565b505050949350505050565b60008082118015614ac157508160018054905010155b1515614acc57600080fd5b600182815481101515614adb57fe5b9060005260206000200160009054906101000a900473ffffffffffffffffffffffffffffffffffffffff169050919050565b606080600080600180549050604051908082528060200260200182016040528015614b475781602001602082028038833980820191505090505b50925060009150600090505b600180549050811015614c9457600860008681526020019081526020016000206000600183815481101515614b8457fe5b9060005260206000200160009054906101000a900473ffffffffffffffffffffffffffffffffffffffff1673ffffffffffffffffffffffffffffffffffffffff1673ffffffffffffffffffffffffffffffffffffffff16815260200190815260200160002060009054906101000a900460ff1615614c8757600181815481101515614c0b57fe5b9060005260206000200160009054906101000a900473ffffffffffffffffffffffffffffffffffffffff168383815181101515614c4457fe5b9060200190602002019073ffffffffffffffffffffffffffffffffffffffff16908173ffffffffffffffffffffffffffffffffffffffff16815250506001820191505b8080600101915050614b53565b81604051908082528060200260200182016040528015614cc35781602001602082028038833980820191505090505b509350600090505b81811015614d42578281815181101515614ce157fe5b906020019060200201518482815181101515614cf957fe5b9060200190602002019073ffffffffffffffffffffffffffffffffffffffff16908173ffffffffffffffffffffffffffffffffffffffff16815250508080600101915050614ccb565b505050919050565b600a5481565b600042905090565b33600260008273ffffffffffffffffffffffffffffffffffffffff1673ffffffffffffffffffffffffffffffffffffffff16815260200190815260200160002060009054906101000a900460ff161515614db157600080fd5b8160006007600083815260200190815260200160002060000160009054906101000a900473ffffffffffffffffffffffffffffffffffffffff1673ffffffffffffffffffffffffffffffffffffffff1614151515614e0e57600080fd5b82336008600083815260200190815260200160002060008273ffffffffffffffffffffffffffffffffffffffff1673ffffffffffffffffffffffffffffffffffffffff16815260200190815260200160002060009054906101000a900460ff16151515614e7a57600080fd5b60016008600087815260200190815260200160002060003373ffffffffffffffffffffffffffffffffffffffff1673ffffffffffffffffffffffffffffffffffffffff16815260200190815260200160002060006101000a81548160ff021916908315150217905550843373ffffffffffffffffffffffffffffffffffffffff167f140dc4d66c62fd51120443d29326f4271bf9f499a1f63b241d878d77be746888614f24614d50565b6040518082815260200191505060405180910390a3614f4285615ea8565b5050505050565b600060608060008060008660008173ffffffffffffffffffffffffffffffffffffffff1614151515614f7a57600080fd5b87600f60008273ffffffffffffffffffffffffffffffffffffffff1673ffffffffffffffffffffffffffffffffffffffff16815260200190815260200160002060009054906101000a900460ff16151515614fd457600080fd5b6001600f60008b73ffffffffffffffffffffffffffffffffffffffff1673ffffffffffffffffffffffffffffffffffffffff16815260200190815260200160002060006101000a81548160ff021916908315150217905550600e8990806001815401808255809150509060018203906000526020600020016000909192909190916101000a81548173ffffffffffffffffffffffffffffffffffffffff021916908373ffffffffffffffffffffffffffffffffffffffff1602179055505060405180807f636f6e6669726d4553434239536d617274436f6e74726163742861646472657381526020017f732c206e6f746963652900000000000000000000000000000000000000000000815250602a019050604051809103902097506040805190810160405280600a81526020017f307836313735373436660000000000000000000000000000000000000000000081525096508651602060040160ff16016040519080825280601f01601f1916602001820160405280156151655781602001602082028038833980820191505090505b509550600094505b600460ff168510156151f557878560048110151561518757fe5b1a7f01000000000000000000000000000000000000000000000000000000000000000286868151811015156151b857fe5b9060200101907effffffffffffffffffffffffffffffffffffffffffffffffffffffffffffff1916908160001a905350848060010195505061516d565b306c01000000000000000000000000029350600094505b601460ff1685101561529a57838560148110151561522657fe5b1a7f0100000000000000000000000000000000000000000000000000000000000000028686600460ff160181518110151561525d57fe5b9060200101907effffffffffffffffffffffffffffffffffffffffffffffffffffffffffffff1916908160001a905350848060010195505061520c565b600094505b86518510156153555786858151811015156152b657fe5b9060200101517f010000000000000000000000000000000000000000000000000000000000000090047f0100000000000000000000000000000000000000000000000000000000000000028686602060040160ff160181518110151561531857fe5b9060200101907effffffffffffffffffffffffffffffffffffffffffffffffffffffffffffff1916908160001a905350848060010195505061529f565b61536430600088600b546163df565b92506000601060008b73ffffffffffffffffffffffffffffffffffffffff1673ffffffffffffffffffffffffffffffffffffffff16815260200190815260200160002060000160006101000a81548160ff021916908360038111156153c557fe5b021790555082601060008b73ffffffffffffffffffffffffffffffffffffffff1673ffffffffffffffffffffffffffffffffffffffff168152602001908152602001600020600301819055507f186e6d249656ab814999bf237d63d53c4235468dede0bd62c6f6bbcf01ec1aa289604051808273ffffffffffffffffffffffffffffffffffffffff1673ffffffffffffffffffffffffffffffffffffffff16815260200191505060405180910390a1505050505050505050565b3073ffffffffffffffffffffffffffffffffffffffff163373ffffffffffffffffffffffffffffffffffffffff161415156154b957600080fd5b80600260008273ffffffffffffffffffffffffffffffffffffffff1673ffffffffffffffffffffffffffffffffffffffff16815260200190815260200160002060009054906101000a900460ff1615151561551357600080fd5b8160008173ffffffffffffffffffffffffffffffffffffffff161415151561553a57600080fd5b600180805490500160095460005482111580156155575750818111155b8015615564575060008114155b8015615571575060008214155b151561557c57600080fd5b6001600260008773ffffffffffffffffffffffffffffffffffffffff1673ffffffffffffffffffffffffffffffffffffffff16815260200190815260200160002060006101000a81548160ff02191690831515021790555060018590806001815401808255809150509060018203906000526020600020016000909192909190916101000a81548173ffffffffffffffffffffffffffffffffffffffff021916908373ffffffffffffffffffffffffffffffffffffffff160217905550508473ffffffffffffffffffffffffffffffffffffffff167f72114e270de66b9d2710ecf140403e5e99b1574767d6a8197bdc8d807a46e7c760405160405180910390a25050505050565b600d6020528160005260406000208181548110151561569f57fe5b9060005260206000209060060201600091509150508060000160009054906101000a900473ffffffffffffffffffffffffffffffffffffffff16908060010160009054906101000a900473ffffffffffffffffffffffffffffffffffffffff16908060020154908060030160009054906101000a900460ff1690806004015490806005018054600181600116156101000203166002900480601f0160208091040260200160405190810160405280929190818152602001828054600181600116156101000203166002900480156157b75780601f1061578c576101008083540402835291602001916157b7565b820191906000526020600020905b81548152906001019060200180831161579a57829003601f168201915b5050505050905086565b60003073ffffffffffffffffffffffffffffffffffffffff163373ffffffffffffffffffffffffffffffffffffffff161415156157fd57600080fd5b82600660008273ffffffffffffffffffffffffffffffffffffffff1673ffffffffffffffffffffffffffffffffffffffff16815260200190815260200160002060009054906101000a900460ff16151561585657600080fd5b82600660008273ffffffffffffffffffffffffffffffffffffffff1673ffffffffffffffffffffffffffffffffffffffff16815260200190815260200160002060009054906101000a900460ff161515156158b057600080fd5b600092505b600580549050831015615999578473ffffffffffffffffffffffffffffffffffffffff166005848154811015156158e857fe5b9060005260206000200160009054906101000a900473ffffffffffffffffffffffffffffffffffffffff1673ffffffffffffffffffffffffffffffffffffffff16141561598c578360058481548110151561593f57fe5b9060005260206000200160006101000a81548173ffffffffffffffffffffffffffffffffffffffff021916908373ffffffffffffffffffffffffffffffffffffffff160217905550615999565b82806001019350506158b5565b6000600660008773ffffffffffffffffffffffffffffffffffffffff1673ffffffffffffffffffffffffffffffffffffffff16815260200190815260200160002060006101000a81548160ff0219169083151502179055506001600660008673ffffffffffffffffffffffffffffffffffffffff1673ffffffffffffffffffffffffffffffffffffffff16815260200190815260200160002060006101000a81548160ff0219169083151502179055507f2b7ba2ac5a8b88c9a954366673eeb1251b2a07f35b607ead8b6079016d31dff285615a73614d50565b604051808373ffffffffffffffffffffffffffffffffffffffff1673ffffffffffffffffffffffffffffffffffffffff1681526020018281526020019250505060405180910390a17f8998d7525983eac6e948a626c5f964d81cc1000c21aa8d98521f2ca34c44bad884615ae5614d50565b604051808373ffffffffffffffffffffffffffffffffffffffff1673ffffffffffffffffffffffffffffffffffffffff1681526020018281526020019250505060405180910390a15050505050565b60003073ffffffffffffffffffffffffffffffffffffffff163373ffffffffffffffffffffffffffffffffffffffff16141515615b7057600080fd5b82600260008273ffffffffffffffffffffffffffffffffffffffff1673ffffffffffffffffffffffffffffffffffffffff16815260200190815260200160002060009054906101000a900460ff161515615bc957600080fd5b82600260008273ffffffffffffffffffffffffffffffffffffffff1673ffffffffffffffffffffffffffffffffffffffff16815260200190815260200160002060009054906101000a900460ff16151515615c2357600080fd5b600092505b600180549050831015615d0c578473ffffffffffffffffffffffffffffffffffffffff16600184815481101515615c5b57fe5b9060005260206000200160009054906101000a900473ffffffffffffffffffffffffffffffffffffffff1673ffffffffffffffffffffffffffffffffffffffff161415615cff5783600184815481101515615cb257fe5b9060005260206000200160006101000a81548173ffffffffffffffffffffffffffffffffffffffff021916908373ffffffffffffffffffffffffffffffffffffffff160217905550615d0c565b8280600101935050615c28565b6000600260008773ffffffffffffffffffffffffffffffffffffffff1673ffffffffffffffffffffffffffffffffffffffff16815260200190815260200160002060006101000a81548160ff0219169083151502179055506001600260008673ffffffffffffffffffffffffffffffffffffffff1673ffffffffffffffffffffffffffffffffffffffff16815260200190815260200160002060006101000a81548160ff0219169083151502179055508473ffffffffffffffffffffffffffffffffffffffff167f270bfc616dd36d5cb6b35aac93e6ef22b089c34e6f6ad6f0892797424840897b60405160405180910390a28373ffffffffffffffffffffffffffffffffffffffff167f72114e270de66b9d2710ecf140403e5e99b1574767d6a8197bdc8d807a46e7c760405160405180910390a25050505050565b60095481565b6000601060008373ffffffffffffffffffffffffffffffffffffffff1673ffffffffffffffffffffffffffffffffffffffff16815260200190815260200160002060000160009054906101000a900460ff169050919050565b600033600260008273ffffffffffffffffffffffffffffffffffffffff1673ffffffffffffffffffffffffffffffffffffffff16815260200190815260200160002060009054906101000a900460ff161515615f0357600080fd5b826000806004811115615f1257fe5b6007600084815260200190815260200160002060030160019054906101000a900460ff166004811115615f4157fe5b141515615f4d57600080fd5b84336008600083815260200190815260200160002060008273ffffffffffffffffffffffffffffffffffffffff1673ffffffffffffffffffffffffffffffffffffffff16815260200190815260200160002060009054906101000a900460ff161515615fb857600080fd5b866007600082815260200190815260200160002060030160009054906101000a900460ff16151515615fe957600080fd5b615ff288613478565b1561616b5760076000898152602001908152602001600020965060018760030160006101000a81548160ff0219169083151502179055508660000160009054906101000a900473ffffffffffffffffffffffffffffffffffffffff1673ffffffffffffffffffffffffffffffffffffffff1687600101548860020160405180828054600181600116156101000203166002900480156160d25780601f106160a7576101008083540402835291602001916160d2565b820191906000526020600020905b8154815290600101906020018083116160b557829003601f168201915b505091505060006040518083038185875af1925050501561611f57877f33e13ecb54c3076d8e8bb8c2881800a4d972b792045ffae98fdf46df365fed7560405160405180910390a261616a565b877f526441bb6c1aba3c9a4a6ca1d6545da9c2333c8c48343ef398eb858d72b7923660405160405180910390a260008760030160006101000a81548160ff0219169083151502179055505b5b5050505050505050565b600081616180614d50565b60076000838152602001908152602001600020600401541115156161a357600080fd5b8260008060048111156161b257fe5b6007600084815260200190815260200160002060030160019054906101000a900460ff1660048111156161e157fe5b1415156161ed57600080fd5b846007600082815260200190815260200160002060030160009054906101000a900460ff1615151561621e57600080fd5b60076000878152602001908152602001600020945060018560030160006101000a81548160ff0219169083151502179055508460000160009054906101000a900473ffffffffffffffffffffffffffffffffffffffff1673ffffffffffffffffffffffffffffffffffffffff1685600101548660020160405180828054600181600116156101000203166002900480156162f95780601f106162ce576101008083540402835291602001916162f9565b820191906000526020600020905b8154815290600101906020018083116162dc57829003601f168201915b505091505060006040518083038185875af1925050501561634657857f33e13ecb54c3076d8e8bb8c2881800a4d972b792045ffae98fdf46df365fed7560405160405180910390a2616391565b857f526441bb6c1aba3c9a4a6ca1d6545da9c2333c8c48343ef398eb858d72b7923660405160405180910390a260008560030160006101000a81548160ff0219169083151502179055505b505050505050565b600060076000838152602001908152602001600020600401549050919050565b60005481565b60066020528060005260406000206000915054906101000a900460ff1681565b60008460008173ffffffffffffffffffffffffffffffffffffffff161415151561640857600080fd5b600a54915060c0604051908101604052808773ffffffffffffffffffffffffffffffffffffffff1681526020018681526020018581526020016000151581526020016000600481111561645757fe5b8152602001848152506007600084815260200190815260200160002060008201518160000160006101000a81548173ffffffffffffffffffffffffffffffffffffffff021916908373ffffffffffffffffffffffffffffffffffffffff1602179055506020820151816001015560408201518160020190805190602001906164e092919061665c565b5060608201518160030160006101000a81548160ff02191690831515021790555060808201518160030160016101000a81548160ff0219169083600481111561652557fe5b021790555060a082015181600401559050506001600a60008282540192505081905550817fc0ba8fe4b176c1714197d43b9cc6bcf797a4a7461c5fe8d0ef6e184ae7601e5160405160405180910390a250949350505050565b8154818355818111156165a5578183600052602060002091820191016165a491906166dc565b5b505050565b828054600181600116156101000203166002900490600052602060002090601f016020900481019282601f106165eb57805160ff1916838001178555616619565b82800160010185558215616619579182015b828111156166185782518255916020019190600101906165fd565b5b50905061662691906166dc565b5090565b815481835581811115616657576006028160060283600052602060002091820191016166569190616701565b5b505050565b828054600181600116156101000203166002900490600052602060002090601f016020900481019282601f1061669d57805160ff19168380011785556166cb565b828001600101855582156166cb579182015b828111156166ca5782518255916020019190600101906166af565b5b5090506166d891906166dc565b5090565b6166fe91905b808211156166fa5760008160009055506001016166e2565b5090565b90565b61679f91905b8082111561679b57600080820160006101000a81549073ffffffffffffffffffffffffffffffffffffffff02191690556001820160006101000a81549073ffffffffffffffffffffffffffffffffffffffff021916905560028201600090556003820160006101000a81549060ff0219169055600482016000905560058201600061679291906167a2565b50600601616707565b5090565b90565b50805460018160011615610100020316600290046000825580601f106167c857506167e7565b601f0160209004906000526020600020908101906167e691906166dc565b5b505600a165627a7a72305820630fd202e498838d9f92a3352ec0e8c1f26472a0e2cb108bbbb2730aa3600dbb0029",
  "source": "pragma solidity ^0.4.21;\r\n\r\nimport \"./ESCB9.sol\";\r\n\r\n/// @title Hierarchy multisignature wallets - Allows build governance structure in trust system format on Ethereum blockchain.\r\n/// @author ESCB development team - <support@escrowblock.net>\r\ncontract HMW {\r\n\r\n    /**\r\n     * Constants\r\n    **/\r\n    uint public maxMemberCount = 50;\r\n\r\n    /**\r\n     * Storage for members\r\n    **/\r\n    address[] public members;\r\n    mapping (address => bool) public isMember;\r\n\r\n    /**\r\n     * Storage for agents\r\n    **/\r\n    address[] public agents;\r\n    mapping (address => bool) public isAgent;\r\n\r\n    /**\r\n     * Storage for children\r\n    **/\r\n    address[] public children;\r\n    mapping (address => bool) public isChild;\r\n\r\n    enum Status { Submitted, Completed, Frozen, Disputed, Reverted }\r\n\r\n    /**\r\n     * Storage for transactions\r\n    **/\r\n    struct Transaction {\r\n        address destination;\r\n        uint value;\r\n        bytes data;\r\n        bool executed;\r\n        Status status;\r\n        uint256 timeAutoConfirmation;\r\n    }\r\n\r\n    mapping (uint => Transaction) public transactions;\r\n    mapping (uint => mapping (address => bool)) public confirmations;\r\n\r\n    uint public requiredConfirmationCount;\r\n    uint public transactionCount;\r\n    uint public standardTimeAutoConfirmation;\r\n\r\n    /**\r\n     * Storage for ratings\r\n    **/\r\n    struct Rating {\r\n        address agent;\r\n        uint256 negativeRating;\r\n        uint256 positiveRating;\r\n        uint256 countRatingRecords;\r\n    }\r\n\r\n    mapping (address => Rating) public ratings;\r\n\r\n    /**\r\n     * Storage for ratings records\r\n    **/\r\n    struct RatingRecord {\r\n        address agent;\r\n        address author;\r\n        bytes32 smartContractAddress;\r\n        bool positiveOrNegative;\r\n        uint256 ratingNumber;\r\n        bytes comment;\r\n    }\r\n\r\n    mapping (address => RatingRecord[]) public ratingRecords;\r\n\r\n    /**\r\n     * Storage for ESCB9 smart contracts\r\n    **/\r\n    address[] public ESCB9smartContracts;\r\n    mapping (address => bool) public isESCB9smartContract;\r\n\r\n    /**\r\n     * Storage for ESCB9 smart contracts deposits\r\n    **/\r\n    enum DepositStatus { Awaiting, Checking, Founded, Returned }\r\n\r\n    struct DepositRecord {\r\n        DepositStatus status;\r\n        uint256 sum;\r\n        bytes notice;\r\n        uint256 transactionId;\r\n    }\r\n\r\n    mapping (address => DepositRecord) public depositESCB9smartContract;\r\n\r\n    /**\r\n     * Modifiers\r\n    **/\r\n    modifier onlyWallet() {\r\n        require(msg.sender == address(this));\r\n        _;\r\n    }\r\n\r\n    modifier memberDoesNotExist(address member) {\r\n        require(!isMember[member]);\r\n        _;\r\n    }\r\n\r\n    modifier memberExists(address member) {\r\n        require(isMember[member]);\r\n        _;\r\n    }\r\n\r\n    modifier childDoesNotExist(address child) {\r\n        require(!isChild[child]);\r\n        _;\r\n    }\r\n\r\n    modifier childExists(address child) {\r\n        require(isChild[child]);\r\n        _;\r\n    }\r\n\r\n    modifier agentExists(address agent) {\r\n        require(isAgent[agent]);\r\n        _;\r\n    }\r\n\r\n    modifier ECB9smartContractExists(address smartContract) {\r\n        require(isESCB9smartContract[smartContract]);\r\n        _;\r\n    }\r\n\r\n    modifier depositStatusECB9smartContractAwaiting(address smartContract) {\r\n        require(depositESCB9smartContract[smartContract].status == DepositStatus.Awaiting);\r\n        _;\r\n    }\r\n\r\n    modifier depositStatusECB9smartContractFounded(address smartContract) {\r\n        require(depositESCB9smartContract[smartContract].status == DepositStatus.Founded);\r\n        _;\r\n    }\r\n\r\n    modifier depositStatusECB9smartContractReturned(address smartContract) {\r\n        require(depositESCB9smartContract[smartContract].status == DepositStatus.Returned);\r\n        _;\r\n    }\r\n\r\n    modifier ECB9smartContractDoesNotExist(address smartContract) {\r\n        require(!isESCB9smartContract[smartContract]);\r\n        _;\r\n    }\r\n\r\n    modifier transactionExists(uint transactionId) {\r\n        require(transactions[transactionId].destination != 0);\r\n        _;\r\n    }\r\n\r\n    modifier afterTimeAutoConfirmation(uint transactionId) {\r\n        require(transactions[transactionId].timeAutoConfirmation > getNow());\r\n        _;\r\n    }\r\n\r\n    modifier confirmed(uint transactionId, address member) {\r\n        require(confirmations[transactionId][member]);\r\n        _;\r\n    }\r\n\r\n    modifier notConfirmed(uint transactionId, address member) {\r\n        require(!confirmations[transactionId][member]);\r\n        _;\r\n    }\r\n\r\n    modifier notExecuted(uint transactionId) {\r\n        require(!transactions[transactionId].executed);\r\n        _;\r\n    }\r\n\r\n    modifier rightTransactionStatus(uint transactionId, Status _enumStatus) {\r\n        require(transactions[transactionId].status == _enumStatus);\r\n        _;\r\n    }\r\n\r\n    modifier notNull(address _address) {\r\n        require(_address != 0);\r\n        _;\r\n    }\r\n\r\n    modifier validRequirement(uint memberCount, uint _requiredConfirmationCount) {\r\n        require(memberCount <= maxMemberCount && _requiredConfirmationCount <= memberCount && _requiredConfirmationCount != 0 && memberCount != 0);\r\n        _;\r\n    }\r\n\r\n    /**\r\n     * Constructor\r\n    **/\r\n\r\n    /// @dev Contract constructor sets initial members and required number of confirmations.\r\n    /// @param _members List of initial members.\r\n    /// @param _requiredConfirmationCount Number of required confirmations.\r\n    /// @param _standardTimeAutoConfirmation Number of seconds after which transaction can be confirmed in auto mode.\r\n    constructor (address[] _members, uint _requiredConfirmationCount, uint _standardTimeAutoConfirmation)\r\n        public\r\n        validRequirement(_members.length, _requiredConfirmationCount)\r\n     {\r\n        require(_standardTimeAutoConfirmation > 0);\r\n\r\n        for (uint i = 0; i < _members.length; i++) {\r\n            require(!isMember[_members[i]] && _members[i] != 0);\r\n            isMember[_members[i]] = true;\r\n        }\r\n\r\n        members = _members;\r\n        requiredConfirmationCount = _requiredConfirmationCount;\r\n        standardTimeAutoConfirmation = _standardTimeAutoConfirmation;\r\n    }\r\n\r\n    /**\r\n     * Public functions for member management\r\n    **/\r\n\r\n    /// @dev Returns list of members.\r\n    /// @return List of member addresses.\r\n    function getMembers()\r\n        public\r\n        constant\r\n        returns (address[])\r\n    {\r\n        return members;\r\n    }\r\n\r\n    /// @dev Returns member from member list by index number.\r\n    /// @return member address.\r\n    function getMember(uint256 indexNumber)\r\n        public\r\n        constant\r\n        returns (address)\r\n    {\r\n        require(indexNumber > 0 && members.length >= indexNumber);\r\n        return members[indexNumber];\r\n    }\r\n\r\n    /**\r\n     * Events for member management\r\n    **/\r\n    event MemberAddition(address indexed member);\r\n    event MemberRemoval(address indexed member);\r\n    event RequiredConfirmationCountChange(uint requiredConfirmationCount);\r\n\r\n    /**\r\n     * Execution functions for member management\r\n    **/\r\n    /// @dev Allows to add a new member. Transaction has to be sent by wallet.\r\n    /// @param member Address of new member.\r\n    function addMember(address member)\r\n        public\r\n        onlyWallet\r\n        memberDoesNotExist(member)\r\n        notNull(member)\r\n        validRequirement(members.length + 1, requiredConfirmationCount)\r\n    {\r\n        isMember[member] = true;\r\n        members.push(member);\r\n        emit MemberAddition(member);\r\n    }\r\n\r\n    /// @dev Allows to remove an member. Transaction has to be sent by wallet.\r\n    /// @param member Address of member.\r\n    function removeMember(address member)\r\n        public\r\n        onlyWallet\r\n        memberExists(member)\r\n    {\r\n        isMember[member] = false;\r\n        for (uint i = 0; i < members.length - 1; i++) {\r\n            if (members[i] == member) {\r\n                members[i] = members[members.length - 1];\r\n                break;\r\n            }\r\n        }\r\n        members.length -= 1;\r\n        if (requiredConfirmationCount > members.length) {\r\n            changeRequiredConfirmationCount(members.length);\r\n        }\r\n        emit MemberRemoval(member);\r\n    }\r\n\r\n    /// @dev Allows to replace an member with a new member. Transaction has to be sent by wallet.\r\n    /// @param member Address of member to be replaced.\r\n    /// @param newMember Address of new member.\r\n    function replaceMember(address member, address newMember)\r\n        public\r\n        onlyWallet\r\n        memberExists(member)\r\n        memberDoesNotExist(newMember)\r\n    {\r\n        for (uint i = 0; i < members.length; i++) {\r\n            if (members[i] == member) {\r\n                members[i] = newMember;\r\n                break;\r\n            }\r\n        }\r\n        isMember[member] = false;\r\n        isMember[newMember] = true;\r\n        emit MemberRemoval(member);\r\n        emit MemberAddition(newMember);\r\n    }\r\n\r\n    /// @dev Allows to change the number of required confirmations. Transaction has to be sent by wallet.\r\n    /// @param _requiredConfirmationCount Number of required confirmations.\r\n    function changeRequiredConfirmationCount(uint _requiredConfirmationCount)\r\n        public\r\n        onlyWallet\r\n        validRequirement(members.length, _requiredConfirmationCount)\r\n    {\r\n        requiredConfirmationCount = _requiredConfirmationCount;\r\n        emit RequiredConfirmationCountChange(_requiredConfirmationCount);\r\n    }\r\n\r\n    /**\r\n     * Public functions for hierarchy management\r\n    **/\r\n\r\n    /// @dev Returns list of children wallets.\r\n    /// @return List of children wallet addresses.\r\n    function getChildren()\r\n        public\r\n        constant\r\n        returns (address[])\r\n    {\r\n        return children;\r\n    }\r\n\r\n    /**\r\n     * Events for hierarchy management\r\n    **/\r\n    event ChildAttachment(address childAddress, uint256 timeStamp);\r\n    event ChildRemoval(address childAddress, uint256 timeStamp);\r\n\r\n    /**\r\n     * Execution functions for hierarchy management\r\n    **/\r\n\r\n    /// @dev Allows to add a new child. Transaction has to be sent by wallet.\r\n    /// @param child Address of new child.\r\n    function attachChild(address child)\r\n      public\r\n      onlyWallet\r\n      childDoesNotExist(child)\r\n      notNull(child)\r\n    {\r\n      isChild[child] = true;\r\n      children.push(child);\r\n      emit ChildAttachment(child, getNow());\r\n    }\r\n\r\n    /// @dev Allows to remove a child. Transaction has to be sent by wallet.\r\n    /// @param child Address of child.\r\n    function removeChild(address child)\r\n        public\r\n        onlyWallet\r\n        childExists(child)\r\n    {\r\n        isChild[child] = false;\r\n        for (uint i = 0; i < children.length - 1; i++) {\r\n            if (children[i] == child) {\r\n                children[i] = children[children.length - 1];\r\n                break;\r\n            }\r\n        }\r\n        children.length -= 1;\r\n        emit ChildRemoval(child, getNow());\r\n    }\r\n\r\n    /// @dev Allows to replace an child with a new child. Transaction has to be sent by wallet.\r\n    /// @param child Address of child to be replaced.\r\n    /// @param newChild Address of new child.\r\n    function replaceChild(address child, address newChild)\r\n        public\r\n        onlyWallet\r\n        childExists(child)\r\n        childDoesNotExist(newChild)\r\n    {\r\n        for (uint i = 0; i < children.length; i++) {\r\n            if (children[i] == child) {\r\n                children[i] = newChild;\r\n                break;\r\n            }\r\n        }\r\n        isChild[child] = false;\r\n        isChild[newChild] = true;\r\n        emit ChildRemoval(child, getNow());\r\n        emit ChildAttachment(newChild, getNow());\r\n    }\r\n\r\n    /**\r\n     * Public functions for transaction management\r\n    **/\r\n\r\n    function getTransactionStatus(uint256 transactionId)\r\n      public\r\n      constant\r\n      returns (Status status)\r\n    {\r\n       status = transactions[transactionId].status;\r\n    }\r\n\r\n    function isTransactionStatus(uint256 transactionId, Status enumStatusNumber)\r\n      public\r\n      constant\r\n      returns (bool result)\r\n    {\r\n      return transactions[transactionId].status == enumStatusNumber;\r\n    }\r\n\r\n    function getConfirmationByAddress(uint256 transactionId, address addressMember)\r\n        public\r\n        constant\r\n        returns (bool result)\r\n    {\r\n      return confirmations[transactionId][addressMember];\r\n    }\r\n\r\n    //@TODO remove from doc, we can directly get informaton from transactions\r\n\r\n    /// @dev Returns total number of transactions after filers are applied.\r\n    /// @param pending Include pending transactions.\r\n    /// @param executed Include executed transactions.\r\n    /// @return Total number of transactions after filters are applied.\r\n    function getTransactionCount(bool pending, bool executed)\r\n        public\r\n        constant\r\n        returns (uint count)\r\n    {\r\n        for (uint i = 0; i < transactionCount; i++) {\r\n            if ((pending && !transactions[i].executed) || (executed && transactions[i].executed)) {\r\n                count += 1;\r\n            }\r\n        }\r\n    }\r\n\r\n    /// @dev Returns number of confirmations of a transaction.\r\n    /// @param transactionId Transaction ID.\r\n    /// @return Number of confirmations.\r\n    function getConfirmationCount(uint transactionId)\r\n        public\r\n        constant\r\n        returns (uint count)\r\n    {\r\n        for (uint i = 0; i < members.length; i++) {\r\n            if (confirmations[transactionId][members[i]]) {\r\n                count += 1;\r\n            }\r\n        }\r\n    }\r\n\r\n    /// @dev Returns array with member addresses, which confirmed transaction.\r\n    /// @param transactionId Transaction ID.\r\n    /// @return Returns array of member addresses.\r\n    function getConfirmations(uint transactionId)\r\n        public\r\n        constant\r\n        returns (address[] _confirmations)\r\n    {\r\n        address[] memory confirmationsTemp = new address[](members.length);\r\n        uint count = 0;\r\n        uint i;\r\n        for (i = 0; i < members.length; i++) {\r\n            if (confirmations[transactionId][members[i]]) {\r\n                confirmationsTemp[count] = members[i];\r\n                count += 1;\r\n            }\r\n        }\r\n        _confirmations = new address[](count);\r\n        for (i = 0; i < count; i++) {\r\n            _confirmations[i] = confirmationsTemp[i];\r\n        }\r\n    }\r\n\r\n    /// @dev Returns array with member addresses, which confirmed transaction.\r\n    /// @param transactionId Transaction ID.\r\n    /// @return Returns array of member addresses.\r\n    function getTimeAutoConfirmation(uint transactionId)\r\n        public\r\n        constant\r\n        returns (uint256 timeStamp)\r\n    {\r\n        timeStamp = transactions[transactionId].timeAutoConfirmation;\r\n    }\r\n\r\n    /// @dev Returns list of transaction IDs in defined range.\r\n    /// @param from Index start position of transaction array.\r\n    /// @param to Index end position of transaction array.\r\n    /// @param pending Include pending transactions.\r\n    /// @param executed Include executed transactions.\r\n    /// @return Returns array of transaction IDs.\r\n    /// @dev Returns list of transaction IDs in defined range.\r\n    function getTransactionIds(uint from, uint to, bool pending, bool executed)\r\n        public\r\n        constant\r\n        returns (uint[] _transactionIds)\r\n    {\r\n        require(from <= to || to < transactionCount);\r\n        uint[] memory transactionIdsTemp = new uint[](to - from + 1);\r\n        uint count = 0;\r\n        uint i;\r\n        for (i = from; i <= to; i++) {\r\n            if ((pending && !transactions[i].executed) || (executed && transactions[i].executed)) {\r\n                transactionIdsTemp[count] = i;\r\n                count += 1;\r\n            }\r\n        }\r\n        _transactionIds = new uint[](count);\r\n        for (i = 0; i < count; i++) {\r\n            _transactionIds[i] = transactionIdsTemp[i];\r\n        }\r\n    }\r\n\r\n    /// @dev Returns the confirmation status of a transaction.\r\n    /// @param transactionId Transaction ID.\r\n    /// @return Confirmation status.\r\n    function isConfirmed(uint transactionId)\r\n        public\r\n        constant\r\n        returns (bool)\r\n    {\r\n        uint count = 0;\r\n        for (uint i = 0; i < members.length; i++) {\r\n            if (confirmations[transactionId][members[i]]) {\r\n                count += 1;\r\n            }\r\n            if (count == requiredConfirmationCount) {\r\n                return true;\r\n            }\r\n        }\r\n    }\r\n\r\n    /**\r\n     * Events for transaction management\r\n    **/\r\n    event Confirmation(address indexed sender, uint indexed transactionId, uint timeStamp);\r\n    event Revocation(address indexed sender, uint indexed transactionId, uint timeStamp);\r\n    event Submission(uint indexed transactionId);\r\n    event Execution(uint indexed transactionId);\r\n    event ExecutionFailure(uint indexed transactionId);\r\n    event TransactionFrozen(uint indexed transactionId);\r\n    event TransactionDisputed(uint indexed transactionId);\r\n    event TransactionReverted(uint indexed transactionId);\r\n    event Deposit(address indexed sender, uint value);\r\n\r\n    /**\r\n     * Execution functions for transaction management\r\n    **/\r\n\r\n    /// @dev Allows an member to submit and confirm a transaction.\r\n    /// @param destination Transaction target address.\r\n    /// @param value Transaction ether value.\r\n    /// @param data Transaction data payload.\r\n    /// @return Returns transaction ID.\r\n    function submitTransaction(address destination, uint value, uint256 _timeAutoConfirmation, bytes data)\r\n        public\r\n        notNull(destination)\r\n        returns (uint transactionId)\r\n    {\r\n        uint256 timeAutoConfirmation;\r\n\r\n        if(_timeAutoConfirmation > getNow()) {\r\n          timeAutoConfirmation = _timeAutoConfirmation;\r\n        } else {\r\n          timeAutoConfirmation = getNow() + standardTimeAutoConfirmation;\r\n        }\r\n\r\n        transactionId = addTransaction(destination, value, data, timeAutoConfirmation);\r\n        confirmTransaction(transactionId);\r\n    }\r\n\r\n    //@TODO add to specification\r\n\r\n    /// @dev Allows an child to submit transaction to the parent.\r\n    /// @param destination Transaction target address.\r\n    /// @param value Transaction ether value.\r\n    /// @param data Transaction data payload.\r\n    /// @return Returns transaction ID.\r\n    function delegateTransaction(address destination, uint value, uint256 _timeAutoConfirmation, bytes data)\r\n        public\r\n        notNull(destination)\r\n        returns (uint transactionId)\r\n    {\r\n        // only the child can delegate this transaction to the parent\r\n        require(isChild[address(msg.sender)]);\r\n\r\n        uint256 timeAutoConfirmation;\r\n        if(_timeAutoConfirmation > getNow()) {\r\n          timeAutoConfirmation = _timeAutoConfirmation;\r\n        } else {\r\n          timeAutoConfirmation = getNow() + standardTimeAutoConfirmation;\r\n        }\r\n\r\n        transactionId = addTransaction(destination, value, data, timeAutoConfirmation);\r\n    }\r\n\r\n    /// @dev Adds a new transaction to the transaction mapping, if transaction does not exist yet.\r\n    /// @param destination Transaction target address.\r\n    /// @param value Transaction ether value.\r\n    /// @param data Transaction data payload.\r\n    /// @return Returns transaction ID.\r\n    function addTransaction(address destination, uint value, bytes data, uint256 timeAutoConfirmation)\r\n        internal\r\n        notNull(destination)\r\n        returns (uint transactionId)\r\n    {\r\n        transactionId = transactionCount;\r\n        transactions[transactionId] = Transaction({\r\n            destination: destination,\r\n            value: value,\r\n            data: data,\r\n            executed: false,\r\n            status: Status.Submitted,\r\n            timeAutoConfirmation: timeAutoConfirmation\r\n        });\r\n\r\n        transactionCount += 1;\r\n        emit Submission(transactionId);\r\n    }\r\n\r\n    /// @dev Allows an member to confirm a transaction.\r\n    /// @param transactionId Transaction ID.\r\n    function confirmTransaction(uint transactionId)\r\n        public\r\n        memberExists(msg.sender)\r\n        transactionExists(transactionId)\r\n        notConfirmed(transactionId, msg.sender)\r\n    {\r\n        confirmations[transactionId][msg.sender] = true;\r\n        emit Confirmation(msg.sender, transactionId, getNow());\r\n        executeTransaction(transactionId);\r\n    }\r\n\r\n    /// @dev Allows an member to revoke a confirmation for a transaction.\r\n    /// @param transactionId Transaction ID.\r\n    function revokeConfirmation(uint transactionId)\r\n        public\r\n        memberExists(msg.sender)\r\n        confirmed(transactionId, msg.sender)\r\n        notExecuted(transactionId)\r\n    {\r\n        confirmations[transactionId][msg.sender] = false;\r\n        emit Revocation(msg.sender, transactionId, getNow());\r\n    }\r\n\r\n    /// @dev Allows the wallet set the new transaction status\r\n    /// @param transactionId Transaction ID.\r\n    /// @param enumStatusNumber Status number.\r\n    function setTransactionStatus(uint256 transactionId, Status enumStatusNumber)\r\n        public\r\n        onlyWallet\r\n    {\r\n      if(Status.Frozen == enumStatusNumber) {\r\n        emit TransactionFrozen(transactionId);\r\n      } else {\r\n        if(Status.Disputed == enumStatusNumber) {\r\n          emit TransactionDisputed(transactionId);\r\n        } else {\r\n          if(Status.Reverted == enumStatusNumber) {\r\n            emit TransactionReverted(transactionId);\r\n          } else {\r\n            revert();\r\n          }\r\n        }\r\n      }\r\n      transactions[transactionId].status = enumStatusNumber;\r\n    }\r\n\r\n    /// @dev Allows anyone from members to execute a confirmed transaction.\r\n    /// @param transactionId Transaction ID.\r\n    function executeTransaction(uint transactionId)\r\n        public\r\n        memberExists(msg.sender)\r\n        rightTransactionStatus(transactionId, Status.Submitted)\r\n        confirmed(transactionId, msg.sender)\r\n        notExecuted(transactionId)\r\n    {\r\n        if (isConfirmed(transactionId)) {\r\n            Transaction storage txn = transactions[transactionId];\r\n            txn.executed = true;\r\n            if (txn.destination.call.value(txn.value)(txn.data)) {\r\n                emit Execution(transactionId);\r\n            } else {\r\n                emit ExecutionFailure(transactionId);\r\n                txn.executed = false;\r\n            }\r\n        }\r\n    }\r\n\r\n    /// @dev Allows anyone to execute transaction in autoconfirmation mode\r\n    /// @param transactionId Transaction ID.\r\n    function autoExecuteTransaction(uint transactionId)\r\n        public\r\n        afterTimeAutoConfirmation(transactionId)\r\n        rightTransactionStatus(transactionId, Status.Submitted)\r\n        notExecuted(transactionId)\r\n    {\r\n        Transaction storage txn = transactions[transactionId];\r\n        txn.executed = true;\r\n        if (txn.destination.call.value(txn.value)(txn.data)) {\r\n            emit Execution(transactionId);\r\n        } else {\r\n            emit ExecutionFailure(transactionId);\r\n            txn.executed = false;\r\n        }\r\n    }\r\n\r\n    /**\r\n     * Public functions for rating management\r\n     *\r\n    **/\r\n    //@TODO remove from doc, we can explicitly get from ratings\r\n    /*\r\n     function getRatingByAddress(address agent)\r\n         constant\r\n         public\r\n         agentExists(agent)\r\n         returns(Rating rating)\r\n     {\r\n       rating = ratings[agent];\r\n     }\r\n    */\r\n\r\n    /**\r\n     * Events for rating management\r\n    **/\r\n    event RatingRecordAdded(address indexed author, address indexed agent, bytes32 smartContractAddress, bool positiveOrNegative, uint256 ratingNumber, bytes comment);\r\n\r\n    /**\r\n     * Execution functions for rating management\r\n     * Only attached ESCB9 smartcontract can add rating to HMW\r\n    **/\r\n    function addRatingRecord(address author,\r\n                             address agent,\r\n                             bytes32 smartContractAddress,\r\n                             bool positiveOrNegative,\r\n                             uint256 ratingNumber,\r\n                             bytes comment)\r\n        public\r\n        agentExists(agent)\r\n        ECB9smartContractExists(msg.sender)\r\n        returns(bool)\r\n    {\r\n      RatingRecord storage newRecord = ratingRecords[agent][ratingRecords[agent].length++];\r\n      newRecord.agent = agent;\r\n      newRecord.author = author;\r\n      newRecord.smartContractAddress = smartContractAddress;\r\n      newRecord.positiveOrNegative = positiveOrNegative;\r\n      newRecord.ratingNumber = ratingNumber;\r\n      newRecord.comment = comment;\r\n      emit RatingRecordAdded(author, agent, smartContractAddress, positiveOrNegative, ratingNumber, comment);\r\n      return true;\r\n    }\r\n\r\n    /**\r\n     * Public functions for ESCB9 protocol management\r\n    **/\r\n    function isAttachedESCB9SmartContract(address smartContract)\r\n        public\r\n        view\r\n        returns(bool result)\r\n    {\r\n      result = isESCB9smartContract[smartContract];\r\n    }\r\n\r\n    function getDepositStatusForESCB9SmartContract(address smartContract)\r\n        public\r\n        view\r\n        returns(DepositStatus result)\r\n    {\r\n      return depositESCB9smartContract[smartContract].status;\r\n    }\r\n\r\n    function ESCB9SmartContractIsDeposited(address smartContract)\r\n        public\r\n        view\r\n        returns(bool result)\r\n    {\r\n      return depositESCB9smartContract[smartContract].status == DepositStatus.Founded;\r\n    }\r\n\r\n    /**\r\n     * Events for ESCB9 protocol management\r\n    **/\r\n    event AttachingESCB9SmartContract(address smartContract);\r\n\r\n    //@TODO add to specification\r\n    event ChangeDepositStatusForESCB9SmartContract(address smartContract, DepositStatus status);\r\n    event ConfirmationForDepositESCB9SmartContract(address smartContract, uint256 sum, bytes notice);\r\n    event CheckingForDepositESCB9SmartContract(address smartContract, uint256 sum, bytes notice);\r\n\r\n    //@TODO add to specification\r\n    event SendDepositToSeller(address smartContract, uint256 sum, bytes notice);\r\n\r\n    /**\r\n     * Execution functions for ESCB9 protocol management\r\n    **/\r\n    function attachESCB9SmartContract(address smartContract)\r\n        notNull(smartContract)\r\n        ECB9smartContractDoesNotExist(smartContract)\r\n        public\r\n    {\r\n      isESCB9smartContract[smartContract] = true;\r\n      ESCB9smartContracts.push(smartContract);\r\n      bytes4 _funcName = bytes4(keccak256(\"confirmESCB9SmartContract(address, notice)\"));\r\n      bytes memory notice = \"0x6175746f\"; //auto\r\n      bytes memory _data = new bytes(_funcName.length + 32 + notice.length);\r\n      uint i;\r\n      for(i=0; i < _funcName.length; i++) {\r\n        _data[i] = _funcName[i];\r\n      }\r\n      bytes20 contractAddress = bytes20(address(this));\r\n      for(i=0; i < contractAddress.length; i++) {\r\n        _data[_funcName.length+i] = contractAddress[i];\r\n      }\r\n      for(i=0; i < notice.length; i++) {\r\n        _data[_funcName.length+32+i] = notice[i];\r\n      }\r\n      //@TODO add this function to specification\r\n      //@NOTICE After an attaching Smart contract we add in the queue the transaction\r\n      //for confirmation deal by the contract in a standart time for the autoconfirmation\r\n      uint256 transactionId = addTransaction(address(this), 0, _data, standardTimeAutoConfirmation);\r\n      depositESCB9smartContract[smartContract].status = DepositStatus.Awaiting;\r\n      depositESCB9smartContract[smartContract].transactionId = transactionId;\r\n      emit AttachingESCB9SmartContract(smartContract);\r\n    }\r\n\r\n    /**\r\n     * This is a function to there the buyer sends an agreement sum or publish\r\n     * encrypted data with an external transactional information\r\n    **/\r\n    function fundDepositForESCB9SmartContract(address smartContract, uint256 sum, bytes notice)\r\n        notNull(smartContract)\r\n        ECB9smartContractExists(smartContract)\r\n        depositStatusECB9smartContractAwaiting(smartContract)\r\n        payable\r\n        public\r\n    {\r\n      // here we check the case with funding in ETH amount\r\n      if (msg.value > 0 && keccak256(ESCB9(smartContract).depositedCurrency()) == keccak256(\"0x455448\")) {\r\n        uint256 sumEth = msg.value;\r\n        if(sumEth == ESCB9(smartContract).depositedSum()) {\r\n          depositESCB9smartContract[smartContract].status = DepositStatus.Founded;\r\n          emit ConfirmationForDepositESCB9SmartContract(smartContract, sum, notice);\r\n        } else {\r\n          revert();\r\n        }\r\n      } else {\r\n        // In this case arbitrage must confirm deposit via the Oracle contract.\r\n        // For this aim we need to write for each supported methods own checking function\r\n        // in an external blockchain, system, or check by manually. All data will be confirmed via the Oracle.\r\n        if(sum == ESCB9(smartContract).depositedSum()) {\r\n          depositESCB9smartContract[smartContract].status = DepositStatus.Checking;\r\n          depositESCB9smartContract[smartContract].sum = sum;\r\n          depositESCB9smartContract[smartContract].notice = notice;\r\n          emit ChangeDepositStatusForESCB9SmartContract(smartContract, DepositStatus.Checking);\r\n        }\r\n      }\r\n    }\r\n\r\n    /**\r\n     * This method uses when a deposit from a counterparty is in an external blockchain, system\r\n    **/\r\n    //@TODO add to specification\r\n    function setDepositForESCB9SmartContractStatus(address smartContract, DepositStatus enumStatusNumber)\r\n        public\r\n        onlyWallet\r\n    {\r\n      if(DepositStatus.Awaiting == enumStatusNumber) {\r\n        emit ChangeDepositStatusForESCB9SmartContract(smartContract, DepositStatus.Awaiting);\r\n      } else {\r\n        if(DepositStatus.Founded == enumStatusNumber) {\r\n          emit ChangeDepositStatusForESCB9SmartContract(smartContract, DepositStatus.Founded);\r\n          emit ConfirmationForDepositESCB9SmartContract(smartContract, depositESCB9smartContract[smartContract].sum, depositESCB9smartContract[smartContract].notice);\r\n        } else {\r\n          if(DepositStatus.Returned == enumStatusNumber) {\r\n            emit ChangeDepositStatusForESCB9SmartContract(smartContract, DepositStatus.Returned);\r\n          } else {\r\n            revert();\r\n          }\r\n        }\r\n      }\r\n      depositESCB9smartContract[smartContract].status = enumStatusNumber;\r\n    }\r\n\r\n    /**\r\n     * The buyer or the current wallet can confirm deal before it\r\n     * will be made by autoconfirmation process\r\n    **/\r\n    function confirmESCB9SmartContract(address smartContract, bytes notice)\r\n        ECB9smartContractExists(smartContract)\r\n        public\r\n    {\r\n      // Confirmation must be called by buyer or by current wallet\r\n      address buyer = ESCB9(smartContract).buyer();\r\n      require(msg.sender == address(this) || msg.sender == buyer);\r\n      require(depositESCB9smartContract[smartContract].status == DepositStatus.Founded);\r\n\r\n      // here we check the case when a funding was in ETH amount\r\n      if (keccak256(ESCB9(smartContract).depositedCurrency()) == keccak256(\"0x455448\")) {\r\n        address seller = ESCB9(smartContract).seller();\r\n        uint depositedSum = ESCB9(smartContract).depositedSum();\r\n        address(seller).transfer(depositedSum);\r\n      } else {\r\n        //@TODO here we emit an event with instruction for the arbitrage to send a deposit for a seller\r\n        emit SendDepositToSeller(smartContract, depositESCB9smartContract[smartContract].sum, depositESCB9smartContract[smartContract].notice);\r\n      }\r\n\r\n      ESCB9(smartContract).confirm(notice);\r\n    }\r\n\r\n    /**\r\n     * The buyer or the current wallet can cancel deal before it will be founded\r\n     * then nothing will happen, if they will to try cancel after the deal is deposited,\r\n     * then the deal will become in dispute status\r\n    **/\r\n    function cancelESCB9SmartContract(address smartContract, bytes notice)\r\n        ECB9smartContractExists(smartContract)\r\n        public\r\n    {\r\n      // Cancel must be called by buyer or by current wallet\r\n      address buyer = ESCB9(smartContract).buyer();\r\n      require(msg.sender == address(this) || msg.sender == buyer);\r\n\r\n      if (depositESCB9smartContract[smartContract].status == DepositStatus.Awaiting) {\r\n        ESCB9(smartContract).cancel(notice);\r\n      } else {\r\n        if (depositESCB9smartContract[smartContract].status == DepositStatus.Checking) {\r\n          setTransactionStatus(depositESCB9smartContract[smartContract].transactionId, Status.Frozen);\r\n          //here we set a status for the transaction in disputed to avoid autoconfirmation\r\n          ESCB9(smartContract).freeze(notice);\r\n        } else {\r\n          if (depositESCB9smartContract[smartContract].status == DepositStatus.Founded) {\r\n            ESCB9(smartContract).dispute(notice);\r\n            //here we set a status for the transaction in disputed to avoid autoconfirmation\r\n            setTransactionStatus(depositESCB9smartContract[smartContract].transactionId, Status.Disputed);\r\n          }\r\n        }\r\n      }\r\n    }\r\n\r\n    /**\r\n     * @notice Get current unix time stamp\r\n    **/\r\n    function getNow()\r\n      constant\r\n      public\r\n      returns (uint) {\r\n        return now;\r\n    }\r\n\r\n    /// @dev Fallback function allows to deposit ether.\r\n    function() public payable {\r\n      if (msg.value > 0) {\r\n        emit Deposit(msg.sender, msg.value);\r\n      }\r\n    }\r\n}\r\n",
  "sourcePath": "D:\\serverdoc\\escb_smartcontracts\\contracts\\HMW.sol",
  "compiler": {
    "name": "solc",
    "version": "0.4.23+commit.124ca40d.Emscripten.clang"
  },
  "schemaVersion": "2.0.0",
  "updatedAt": "2019-01-13T20:41:06.519Z"
}